{
	"contracts/wethamm.sol": {
		"SimpleAMM": {
			"abi": [
				{
					"inputs": [
						{
							"internalType": "contract IERC20",
							"name": "_token",
							"type": "address"
						},
						{
							"internalType": "contract WETH",
							"name": "_weth",
							"type": "address"
						}
					],
					"stateMutability": "nonpayable",
					"type": "constructor"
				},
				{
					"anonymous": false,
					"inputs": [
						{
							"indexed": true,
							"internalType": "address",
							"name": "provider",
							"type": "address"
						},
						{
							"indexed": false,
							"internalType": "uint256",
							"name": "amountToken",
							"type": "uint256"
						},
						{
							"indexed": false,
							"internalType": "uint256",
							"name": "amountWETH",
							"type": "uint256"
						}
					],
					"name": "AddLiquidity",
					"type": "event"
				},
				{
					"anonymous": false,
					"inputs": [
						{
							"indexed": true,
							"internalType": "address",
							"name": "provider",
							"type": "address"
						},
						{
							"indexed": false,
							"internalType": "uint256",
							"name": "amountToken",
							"type": "uint256"
						},
						{
							"indexed": false,
							"internalType": "uint256",
							"name": "amountWETH",
							"type": "uint256"
						}
					],
					"name": "RemoveLiquidity",
					"type": "event"
				},
				{
					"anonymous": false,
					"inputs": [
						{
							"indexed": true,
							"internalType": "address",
							"name": "sender",
							"type": "address"
						},
						{
							"indexed": false,
							"internalType": "uint256",
							"name": "amountInToken",
							"type": "uint256"
						},
						{
							"indexed": false,
							"internalType": "uint256",
							"name": "amountInWETH",
							"type": "uint256"
						}
					],
					"name": "Swap",
					"type": "event"
				},
				{
					"inputs": [
						{
							"internalType": "uint256",
							"name": "amountToken",
							"type": "uint256"
						},
						{
							"internalType": "uint256",
							"name": "amountWETH",
							"type": "uint256"
						}
					],
					"name": "addLiquidity",
					"outputs": [],
					"stateMutability": "nonpayable",
					"type": "function"
				},
				{
					"inputs": [
						{
							"internalType": "uint256",
							"name": "amountIn",
							"type": "uint256"
						},
						{
							"internalType": "uint256",
							"name": "reserveIn",
							"type": "uint256"
						},
						{
							"internalType": "uint256",
							"name": "reserveOut",
							"type": "uint256"
						}
					],
					"name": "getAmountOut",
					"outputs": [
						{
							"internalType": "uint256",
							"name": "amountOut",
							"type": "uint256"
						}
					],
					"stateMutability": "pure",
					"type": "function"
				},
				{
					"inputs": [
						{
							"internalType": "uint256",
							"name": "amountToken",
							"type": "uint256"
						},
						{
							"internalType": "uint256",
							"name": "amountWETH",
							"type": "uint256"
						}
					],
					"name": "removeLiquidity",
					"outputs": [],
					"stateMutability": "nonpayable",
					"type": "function"
				},
				{
					"inputs": [],
					"name": "reserveToken",
					"outputs": [
						{
							"internalType": "uint256",
							"name": "",
							"type": "uint256"
						}
					],
					"stateMutability": "view",
					"type": "function"
				},
				{
					"inputs": [],
					"name": "reserveWETH",
					"outputs": [
						{
							"internalType": "uint256",
							"name": "",
							"type": "uint256"
						}
					],
					"stateMutability": "view",
					"type": "function"
				},
				{
					"inputs": [
						{
							"internalType": "uint256",
							"name": "amountTokenIn",
							"type": "uint256"
						}
					],
					"name": "swapTokenForWETH",
					"outputs": [],
					"stateMutability": "nonpayable",
					"type": "function"
				},
				{
					"inputs": [
						{
							"internalType": "uint256",
							"name": "amountWETHIn",
							"type": "uint256"
						}
					],
					"name": "swapWETHForToken",
					"outputs": [],
					"stateMutability": "nonpayable",
					"type": "function"
				},
				{
					"inputs": [],
					"name": "token",
					"outputs": [
						{
							"internalType": "contract IERC20",
							"name": "",
							"type": "address"
						}
					],
					"stateMutability": "view",
					"type": "function"
				},
				{
					"inputs": [],
					"name": "weth",
					"outputs": [
						{
							"internalType": "contract WETH",
							"name": "",
							"type": "address"
						}
					],
					"stateMutability": "view",
					"type": "function"
				}
			],
			"devdoc": {
				"kind": "dev",
				"methods": {},
				"version": 1
			},
			"evm": {
				"assembly": "    /* \"contracts/wethamm.sol\":2595:5570  contract SimpleAMM {... */\n  mstore(0x40, 0x80)\n    /* \"contracts/wethamm.sol\":3013:3105  constructor(IERC20 _token, WETH _weth) {... */\n  callvalue\n  dup1\n  iszero\n  tag_1\n  jumpi\n  0x00\n  dup1\n  revert\ntag_1:\n  pop\n  mload(0x40)\n  sub(codesize, bytecodeSize)\n  dup1\n  bytecodeSize\n  dup4\n  codecopy\n  dup2\n  dup2\n  add\n  0x40\n  mstore\n  dup2\n  add\n  swap1\n  tag_2\n  swap2\n  swap1\n  tag_3\n  jump\t// in\ntag_2:\n    /* \"contracts/wethamm.sol\":3070:3076  _token */\n  dup2\n    /* \"contracts/wethamm.sol\":3062:3067  token */\n  0x00\n  dup1\n    /* \"contracts/wethamm.sol\":3062:3076  token = _token */\n  0x0100\n  exp\n  dup2\n  sload\n  dup2\n  0xffffffffffffffffffffffffffffffffffffffff\n  mul\n  not\n  and\n  swap1\n  dup4\n  0xffffffffffffffffffffffffffffffffffffffff\n  and\n  mul\n  or\n  swap1\n  sstore\n  pop\n    /* \"contracts/wethamm.sol\":3093:3098  _weth */\n  dup1\n    /* \"contracts/wethamm.sol\":3086:3090  weth */\n  0x01\n  0x00\n    /* \"contracts/wethamm.sol\":3086:3098  weth = _weth */\n  0x0100\n  exp\n  dup2\n  sload\n  dup2\n  0xffffffffffffffffffffffffffffffffffffffff\n  mul\n  not\n  and\n  swap1\n  dup4\n  0xffffffffffffffffffffffffffffffffffffffff\n  and\n  mul\n  or\n  swap1\n  sstore\n  pop\n    /* \"contracts/wethamm.sol\":3013:3105  constructor(IERC20 _token, WETH _weth) {... */\n  pop\n  pop\n    /* \"contracts/wethamm.sol\":2595:5570  contract SimpleAMM {... */\n  jump(tag_6)\n    /* \"#utility.yul\":88:205   */\ntag_8:\n    /* \"#utility.yul\":197:198   */\n  0x00\n    /* \"#utility.yul\":194:195   */\n  dup1\n    /* \"#utility.yul\":187:199   */\n  revert\n    /* \"#utility.yul\":334:460   */\ntag_10:\n    /* \"#utility.yul\":371:378   */\n  0x00\n    /* \"#utility.yul\":411:453   */\n  0xffffffffffffffffffffffffffffffffffffffff\n    /* \"#utility.yul\":404:409   */\n  dup3\n    /* \"#utility.yul\":400:454   */\n  and\n    /* \"#utility.yul\":389:454   */\n  swap1\n  pop\n    /* \"#utility.yul\":334:460   */\n  swap2\n  swap1\n  pop\n  jump\t// out\n    /* \"#utility.yul\":466:562   */\ntag_11:\n    /* \"#utility.yul\":503:510   */\n  0x00\n    /* \"#utility.yul\":532:556   */\n  tag_25\n    /* \"#utility.yul\":550:555   */\n  dup3\n    /* \"#utility.yul\":532:556   */\n  tag_10\n  jump\t// in\ntag_25:\n    /* \"#utility.yul\":521:556   */\n  swap1\n  pop\n    /* \"#utility.yul\":466:562   */\n  swap2\n  swap1\n  pop\n  jump\t// out\n    /* \"#utility.yul\":568:677   */\ntag_12:\n    /* \"#utility.yul\":618:625   */\n  0x00\n    /* \"#utility.yul\":647:671   */\n  tag_27\n    /* \"#utility.yul\":665:670   */\n  dup3\n    /* \"#utility.yul\":647:671   */\n  tag_11\n  jump\t// in\ntag_27:\n    /* \"#utility.yul\":636:671   */\n  swap1\n  pop\n    /* \"#utility.yul\":568:677   */\n  swap2\n  swap1\n  pop\n  jump\t// out\n    /* \"#utility.yul\":683:831   */\ntag_13:\n    /* \"#utility.yul\":769:806   */\n  tag_29\n    /* \"#utility.yul\":800:805   */\n  dup2\n    /* \"#utility.yul\":769:806   */\n  tag_12\n  jump\t// in\ntag_29:\n    /* \"#utility.yul\":762:767   */\n  dup2\n    /* \"#utility.yul\":759:807   */\n  eq\n    /* \"#utility.yul\":749:825   */\n  tag_30\n  jumpi\n    /* \"#utility.yul\":821:822   */\n  0x00\n    /* \"#utility.yul\":818:819   */\n  dup1\n    /* \"#utility.yul\":811:823   */\n  revert\n    /* \"#utility.yul\":749:825   */\ntag_30:\n    /* \"#utility.yul\":683:831   */\n  pop\n  jump\t// out\n    /* \"#utility.yul\":837:1006   */\ntag_14:\n    /* \"#utility.yul\":907:912   */\n  0x00\n    /* \"#utility.yul\":938:944   */\n  dup2\n    /* \"#utility.yul\":932:945   */\n  mload\n    /* \"#utility.yul\":923:945   */\n  swap1\n  pop\n    /* \"#utility.yul\":954:1000   */\n  tag_32\n    /* \"#utility.yul\":994:999   */\n  dup2\n    /* \"#utility.yul\":954:1000   */\n  tag_13\n  jump\t// in\ntag_32:\n    /* \"#utility.yul\":837:1006   */\n  swap3\n  swap2\n  pop\n  pop\n  jump\t// out\n    /* \"#utility.yul\":1012:1116   */\ntag_15:\n    /* \"#utility.yul\":1057:1064   */\n  0x00\n    /* \"#utility.yul\":1086:1110   */\n  tag_34\n    /* \"#utility.yul\":1104:1109   */\n  dup3\n    /* \"#utility.yul\":1086:1110   */\n  tag_10\n  jump\t// in\ntag_34:\n    /* \"#utility.yul\":1075:1110   */\n  swap1\n  pop\n    /* \"#utility.yul\":1012:1116   */\n  swap2\n  swap1\n  pop\n  jump\t// out\n    /* \"#utility.yul\":1122:1238   */\ntag_16:\n    /* \"#utility.yul\":1171:1178   */\n  0x00\n    /* \"#utility.yul\":1200:1232   */\n  tag_36\n    /* \"#utility.yul\":1226:1231   */\n  dup3\n    /* \"#utility.yul\":1200:1232   */\n  tag_15\n  jump\t// in\ntag_36:\n    /* \"#utility.yul\":1189:1232   */\n  swap1\n  pop\n    /* \"#utility.yul\":1122:1238   */\n  swap2\n  swap1\n  pop\n  jump\t// out\n    /* \"#utility.yul\":1244:1390   */\ntag_17:\n    /* \"#utility.yul\":1329:1365   */\n  tag_38\n    /* \"#utility.yul\":1359:1364   */\n  dup2\n    /* \"#utility.yul\":1329:1365   */\n  tag_16\n  jump\t// in\ntag_38:\n    /* \"#utility.yul\":1322:1327   */\n  dup2\n    /* \"#utility.yul\":1319:1366   */\n  eq\n    /* \"#utility.yul\":1309:1384   */\n  tag_39\n  jumpi\n    /* \"#utility.yul\":1380:1381   */\n  0x00\n    /* \"#utility.yul\":1377:1378   */\n  dup1\n    /* \"#utility.yul\":1370:1382   */\n  revert\n    /* \"#utility.yul\":1309:1384   */\ntag_39:\n    /* \"#utility.yul\":1244:1390   */\n  pop\n  jump\t// out\n    /* \"#utility.yul\":1396:1563   */\ntag_18:\n    /* \"#utility.yul\":1465:1470   */\n  0x00\n    /* \"#utility.yul\":1496:1502   */\n  dup2\n    /* \"#utility.yul\":1490:1503   */\n  mload\n    /* \"#utility.yul\":1481:1503   */\n  swap1\n  pop\n    /* \"#utility.yul\":1512:1557   */\n  tag_41\n    /* \"#utility.yul\":1551:1556   */\n  dup2\n    /* \"#utility.yul\":1512:1557   */\n  tag_17\n  jump\t// in\ntag_41:\n    /* \"#utility.yul\":1396:1563   */\n  swap3\n  swap2\n  pop\n  pop\n  jump\t// out\n    /* \"#utility.yul\":1569:2126   */\ntag_3:\n    /* \"#utility.yul\":1673:1679   */\n  0x00\n    /* \"#utility.yul\":1681:1687   */\n  dup1\n    /* \"#utility.yul\":1730:1732   */\n  0x40\n    /* \"#utility.yul\":1718:1727   */\n  dup4\n    /* \"#utility.yul\":1709:1716   */\n  dup6\n    /* \"#utility.yul\":1705:1728   */\n  sub\n    /* \"#utility.yul\":1701:1733   */\n  slt\n    /* \"#utility.yul\":1698:1817   */\n  iszero\n  tag_43\n  jumpi\n    /* \"#utility.yul\":1736:1815   */\n  tag_44\n  tag_8\n  jump\t// in\ntag_44:\n    /* \"#utility.yul\":1698:1817   */\ntag_43:\n    /* \"#utility.yul\":1856:1857   */\n  0x00\n    /* \"#utility.yul\":1881:1958   */\n  tag_45\n    /* \"#utility.yul\":1950:1957   */\n  dup6\n    /* \"#utility.yul\":1941:1947   */\n  dup3\n    /* \"#utility.yul\":1930:1939   */\n  dup7\n    /* \"#utility.yul\":1926:1948   */\n  add\n    /* \"#utility.yul\":1881:1958   */\n  tag_14\n  jump\t// in\ntag_45:\n    /* \"#utility.yul\":1871:1958   */\n  swap3\n  pop\n    /* \"#utility.yul\":1827:1968   */\n  pop\n    /* \"#utility.yul\":2007:2009   */\n  0x20\n    /* \"#utility.yul\":2033:2109   */\n  tag_46\n    /* \"#utility.yul\":2101:2108   */\n  dup6\n    /* \"#utility.yul\":2092:2098   */\n  dup3\n    /* \"#utility.yul\":2081:2090   */\n  dup7\n    /* \"#utility.yul\":2077:2099   */\n  add\n    /* \"#utility.yul\":2033:2109   */\n  tag_18\n  jump\t// in\ntag_46:\n    /* \"#utility.yul\":2023:2109   */\n  swap2\n  pop\n    /* \"#utility.yul\":1978:2119   */\n  pop\n    /* \"#utility.yul\":1569:2126   */\n  swap3\n  pop\n  swap3\n  swap1\n  pop\n  jump\t// out\n    /* \"contracts/wethamm.sol\":2595:5570  contract SimpleAMM {... */\ntag_6:\n  dataSize(sub_0)\n  dup1\n  dataOffset(sub_0)\n  0x00\n  codecopy\n  0x00\n  return\nstop\n\nsub_0: assembly {\n        /* \"contracts/wethamm.sol\":2595:5570  contract SimpleAMM {... */\n      mstore(0x40, 0x80)\n      callvalue\n      dup1\n      iszero\n      tag_1\n      jumpi\n      0x00\n      dup1\n      revert\n    tag_1:\n      pop\n      jumpi(tag_2, lt(calldatasize, 0x04))\n      shr(0xe0, calldataload(0x00))\n      dup1\n      0x9cd441da\n      gt\n      tag_12\n      jumpi\n      dup1\n      0x9cd441da\n      eq\n      tag_7\n      jumpi\n      dup1\n      0x9d7de6b3\n      eq\n      tag_8\n      jumpi\n      dup1\n      0xcaffdf44\n      eq\n      tag_9\n      jumpi\n      dup1\n      0xf4325d67\n      eq\n      tag_10\n      jumpi\n      dup1\n      0xfc0c546a\n      eq\n      tag_11\n      jumpi\n      jump(tag_2)\n    tag_12:\n      dup1\n      0x054d50d4\n      eq\n      tag_3\n      jumpi\n      dup1\n      0x15d3eadd\n      eq\n      tag_4\n      jumpi\n      dup1\n      0x1b9a1754\n      eq\n      tag_5\n      jumpi\n      dup1\n      0x3fc8cef3\n      eq\n      tag_6\n      jumpi\n    tag_2:\n      0x00\n      dup1\n      revert\n        /* \"contracts/wethamm.sol\":5089:5568  function getAmountOut(uint amountIn, uint reserveIn, uint reserveOut) public pure returns (uint amountOut) {... */\n    tag_3:\n      tag_13\n      0x04\n      dup1\n      calldatasize\n      sub\n      dup2\n      add\n      swap1\n      tag_14\n      swap2\n      swap1\n      tag_15\n      jump\t// in\n    tag_14:\n      tag_16\n      jump\t// in\n    tag_13:\n      mload(0x40)\n      tag_17\n      swap2\n      swap1\n      tag_18\n      jump\t// in\n    tag_17:\n      mload(0x40)\n      dup1\n      swap2\n      sub\n      swap1\n      return\n        /* \"contracts/wethamm.sol\":4569:5033  function swapWETHForToken(uint amountWETHIn) external {... */\n    tag_4:\n      tag_19\n      0x04\n      dup1\n      calldatasize\n      sub\n      dup2\n      add\n      swap1\n      tag_20\n      swap2\n      swap1\n      tag_21\n      jump\t// in\n    tag_20:\n      tag_22\n      jump\t// in\n    tag_19:\n      stop\n        /* \"contracts/wethamm.sol\":2727:2753  uint256 public reserveWETH */\n    tag_5:\n      tag_23\n      tag_24\n      jump\t// in\n    tag_23:\n      mload(0x40)\n      tag_25\n      swap2\n      swap1\n      tag_18\n      jump\t// in\n    tag_25:\n      mload(0x40)\n      dup1\n      swap2\n      sub\n      swap1\n      return\n        /* \"contracts/wethamm.sol\":2671:2687  WETH public weth */\n    tag_6:\n      tag_26\n      tag_27\n      jump\t// in\n    tag_26:\n      mload(0x40)\n      tag_28\n      swap2\n      swap1\n      tag_29\n      jump\t// in\n    tag_28:\n      mload(0x40)\n      dup1\n      swap2\n      sub\n      swap1\n      return\n        /* \"contracts/wethamm.sol\":3134:3535  function addLiquidity(uint amountToken, uint amountWETH) external {... */\n    tag_7:\n      tag_30\n      0x04\n      dup1\n      calldatasize\n      sub\n      dup2\n      add\n      swap1\n      tag_31\n      swap2\n      swap1\n      tag_32\n      jump\t// in\n    tag_31:\n      tag_33\n      jump\t// in\n    tag_30:\n      stop\n        /* \"contracts/wethamm.sol\":3564:4034  function removeLiquidity(uint amountToken, uint amountWETH) external {... */\n    tag_8:\n      tag_34\n      0x04\n      dup1\n      calldatasize\n      sub\n      dup2\n      add\n      swap1\n      tag_35\n      swap2\n      swap1\n      tag_32\n      jump\t// in\n    tag_35:\n      tag_36\n      jump\t// in\n    tag_34:\n      stop\n        /* \"contracts/wethamm.sol\":4069:4534  function swapTokenForWETH(uint amountTokenIn) external {... */\n    tag_9:\n      tag_37\n      0x04\n      dup1\n      calldatasize\n      sub\n      dup2\n      add\n      swap1\n      tag_38\n      swap2\n      swap1\n      tag_21\n      jump\t// in\n    tag_38:\n      tag_39\n      jump\t// in\n    tag_37:\n      stop\n        /* \"contracts/wethamm.sol\":2694:2721  uint256 public reserveToken */\n    tag_10:\n      tag_40\n      tag_41\n      jump\t// in\n    tag_40:\n      mload(0x40)\n      tag_42\n      swap2\n      swap1\n      tag_18\n      jump\t// in\n    tag_42:\n      mload(0x40)\n      dup1\n      swap2\n      sub\n      swap1\n      return\n        /* \"contracts/wethamm.sol\":2620:2639  IERC20 public token */\n    tag_11:\n      tag_43\n      tag_44\n      jump\t// in\n    tag_43:\n      mload(0x40)\n      tag_45\n      swap2\n      swap1\n      tag_46\n      jump\t// in\n    tag_45:\n      mload(0x40)\n      dup1\n      swap2\n      sub\n      swap1\n      return\n        /* \"contracts/wethamm.sol\":5089:5568  function getAmountOut(uint amountIn, uint reserveIn, uint reserveOut) public pure returns (uint amountOut) {... */\n    tag_16:\n        /* \"contracts/wethamm.sol\":5180:5194  uint amountOut */\n      0x00\n        /* \"contracts/wethamm.sol\":5225:5226  0 */\n      dup1\n        /* \"contracts/wethamm.sol\":5214:5222  amountIn */\n      dup5\n        /* \"contracts/wethamm.sol\":5214:5226  amountIn > 0 */\n      gt\n        /* \"contracts/wethamm.sol\":5206:5251  require(amountIn > 0, \"Invalid input amount\") */\n      tag_48\n      jumpi\n      mload(0x40)\n      0x08c379a000000000000000000000000000000000000000000000000000000000\n      dup2\n      mstore\n      0x04\n      add\n      tag_49\n      swap1\n      tag_50\n      jump\t// in\n    tag_49:\n      mload(0x40)\n      dup1\n      swap2\n      sub\n      swap1\n      revert\n    tag_48:\n        /* \"contracts/wethamm.sol\":5281:5282  0 */\n      0x00\n        /* \"contracts/wethamm.sol\":5269:5278  reserveIn */\n      dup4\n        /* \"contracts/wethamm.sol\":5269:5282  reserveIn > 0 */\n      gt\n        /* \"contracts/wethamm.sol\":5269:5300  reserveIn > 0 && reserveOut > 0 */\n      dup1\n      iszero\n      tag_51\n      jumpi\n      pop\n        /* \"contracts/wethamm.sol\":5299:5300  0 */\n      0x00\n        /* \"contracts/wethamm.sol\":5286:5296  reserveOut */\n      dup3\n        /* \"contracts/wethamm.sol\":5286:5300  reserveOut > 0 */\n      gt\n        /* \"contracts/wethamm.sol\":5269:5300  reserveIn > 0 && reserveOut > 0 */\n    tag_51:\n        /* \"contracts/wethamm.sol\":5261:5327  require(reserveIn > 0 && reserveOut > 0, \"Insufficient liquidity\") */\n      tag_52\n      jumpi\n      mload(0x40)\n      0x08c379a000000000000000000000000000000000000000000000000000000000\n      dup2\n      mstore\n      0x04\n      add\n      tag_53\n      swap1\n      tag_54\n      jump\t// in\n    tag_53:\n      mload(0x40)\n      dup1\n      swap2\n      sub\n      swap1\n      revert\n    tag_52:\n        /* \"contracts/wethamm.sol\":5338:5358  uint amountInWithFee */\n      0x00\n        /* \"contracts/wethamm.sol\":5372:5375  997 */\n      0x03e5\n        /* \"contracts/wethamm.sol\":5361:5369  amountIn */\n      dup6\n        /* \"contracts/wethamm.sol\":5361:5375  amountIn * 997 */\n      tag_55\n      swap2\n      swap1\n      tag_56\n      jump\t// in\n    tag_55:\n        /* \"contracts/wethamm.sol\":5338:5375  uint amountInWithFee = amountIn * 997 */\n      swap1\n      pop\n        /* \"contracts/wethamm.sol\":5407:5421  uint numerator */\n      0x00\n        /* \"contracts/wethamm.sol\":5442:5452  reserveOut */\n      dup4\n        /* \"contracts/wethamm.sol\":5424:5439  amountInWithFee */\n      dup3\n        /* \"contracts/wethamm.sol\":5424:5452  amountInWithFee * reserveOut */\n      tag_57\n      swap2\n      swap1\n      tag_56\n      jump\t// in\n    tag_57:\n        /* \"contracts/wethamm.sol\":5407:5452  uint numerator = amountInWithFee * reserveOut */\n      swap1\n      pop\n        /* \"contracts/wethamm.sol\":5462:5478  uint denominator */\n      0x00\n        /* \"contracts/wethamm.sol\":5500:5515  amountInWithFee */\n      dup3\n        /* \"contracts/wethamm.sol\":5493:5497  1000 */\n      0x03e8\n        /* \"contracts/wethamm.sol\":5481:5490  reserveIn */\n      dup8\n        /* \"contracts/wethamm.sol\":5481:5497  reserveIn * 1000 */\n      tag_58\n      swap2\n      swap1\n      tag_56\n      jump\t// in\n    tag_58:\n        /* \"contracts/wethamm.sol\":5481:5515  reserveIn * 1000 + amountInWithFee */\n      tag_59\n      swap2\n      swap1\n      tag_60\n      jump\t// in\n    tag_59:\n        /* \"contracts/wethamm.sol\":5462:5515  uint denominator = reserveIn * 1000 + amountInWithFee */\n      swap1\n      pop\n        /* \"contracts/wethamm.sol\":5550:5561  denominator */\n      dup1\n        /* \"contracts/wethamm.sol\":5538:5547  numerator */\n      dup3\n        /* \"contracts/wethamm.sol\":5538:5561  numerator / denominator */\n      tag_61\n      swap2\n      swap1\n      tag_62\n      jump\t// in\n    tag_61:\n        /* \"contracts/wethamm.sol\":5526:5561  amountOut = numerator / denominator */\n      swap4\n      pop\n        /* \"contracts/wethamm.sol\":5196:5568  {... */\n      pop\n      pop\n      pop\n        /* \"contracts/wethamm.sol\":5089:5568  function getAmountOut(uint amountIn, uint reserveIn, uint reserveOut) public pure returns (uint amountOut) {... */\n      swap4\n      swap3\n      pop\n      pop\n      pop\n      jump\t// out\n        /* \"contracts/wethamm.sol\":4569:5033  function swapWETHForToken(uint amountWETHIn) external {... */\n    tag_22:\n        /* \"contracts/wethamm.sol\":4641:4645  weth */\n      0x01\n      0x00\n      swap1\n      sload\n      swap1\n      0x0100\n      exp\n      swap1\n      div\n      0xffffffffffffffffffffffffffffffffffffffff\n      and\n        /* \"contracts/wethamm.sol\":4641:4658  weth.transferFrom */\n      0xffffffffffffffffffffffffffffffffffffffff\n      and\n      0x23b872dd\n        /* \"contracts/wethamm.sol\":4659:4669  msg.sender */\n      caller\n        /* \"contracts/wethamm.sol\":4679:4683  this */\n      address\n        /* \"contracts/wethamm.sol\":4686:4698  amountWETHIn */\n      dup5\n        /* \"contracts/wethamm.sol\":4641:4699  weth.transferFrom(msg.sender, address(this), amountWETHIn) */\n      mload(0x40)\n      dup5\n      0xffffffff\n      and\n      0xe0\n      shl\n      dup2\n      mstore\n      0x04\n      add\n      tag_64\n      swap4\n      swap3\n      swap2\n      swap1\n      tag_65\n      jump\t// in\n    tag_64:\n      0x20\n      mload(0x40)\n      dup1\n      dup4\n      sub\n      dup2\n      0x00\n      dup8\n      gas\n      call\n      iszero\n      dup1\n      iszero\n      tag_67\n      jumpi\n      returndatasize\n      0x00\n      dup1\n      returndatacopy\n      revert(0x00, returndatasize)\n    tag_67:\n      pop\n      pop\n      pop\n      pop\n      mload(0x40)\n      returndatasize\n      not(0x1f)\n      0x1f\n      dup3\n      add\n      and\n      dup3\n      add\n      dup1\n      0x40\n      mstore\n      pop\n      dup2\n      add\n      swap1\n      tag_68\n      swap2\n      swap1\n      tag_69\n      jump\t// in\n    tag_68:\n        /* \"contracts/wethamm.sol\":4633:4719  require(weth.transferFrom(msg.sender, address(this), amountWETHIn), \"Transfer failed\") */\n      tag_70\n      jumpi\n      mload(0x40)\n      0x08c379a000000000000000000000000000000000000000000000000000000000\n      dup2\n      mstore\n      0x04\n      add\n      tag_71\n      swap1\n      tag_72\n      jump\t// in\n    tag_71:\n      mload(0x40)\n      dup1\n      swap2\n      sub\n      swap1\n      revert\n    tag_70:\n        /* \"contracts/wethamm.sol\":4730:4749  uint amountTokenOut */\n      0x00\n        /* \"contracts/wethamm.sol\":4752:4805  getAmountOut(amountWETHIn, reserveWETH, reserveToken) */\n      tag_73\n        /* \"contracts/wethamm.sol\":4765:4777  amountWETHIn */\n      dup3\n        /* \"contracts/wethamm.sol\":4779:4790  reserveWETH */\n      sload(0x03)\n        /* \"contracts/wethamm.sol\":4792:4804  reserveToken */\n      sload(0x02)\n        /* \"contracts/wethamm.sol\":4752:4764  getAmountOut */\n      tag_16\n        /* \"contracts/wethamm.sol\":4752:4805  getAmountOut(amountWETHIn, reserveWETH, reserveToken) */\n      jump\t// in\n    tag_73:\n        /* \"contracts/wethamm.sol\":4730:4805  uint amountTokenOut = getAmountOut(amountWETHIn, reserveWETH, reserveToken) */\n      swap1\n      pop\n        /* \"contracts/wethamm.sol\":4831:4843  amountWETHIn */\n      dup2\n        /* \"contracts/wethamm.sol\":4816:4827  reserveWETH */\n      0x03\n      0x00\n        /* \"contracts/wethamm.sol\":4816:4843  reserveWETH += amountWETHIn */\n      dup3\n      dup3\n      sload\n      tag_74\n      swap2\n      swap1\n      tag_60\n      jump\t// in\n    tag_74:\n      swap3\n      pop\n      pop\n      dup2\n      swap1\n      sstore\n      pop\n        /* \"contracts/wethamm.sol\":4869:4883  amountTokenOut */\n      dup1\n        /* \"contracts/wethamm.sol\":4853:4865  reserveToken */\n      0x02\n      0x00\n        /* \"contracts/wethamm.sol\":4853:4883  reserveToken -= amountTokenOut */\n      dup3\n      dup3\n      sload\n      tag_75\n      swap2\n      swap1\n      tag_76\n      jump\t// in\n    tag_75:\n      swap3\n      pop\n      pop\n      dup2\n      swap1\n      sstore\n      pop\n        /* \"contracts/wethamm.sol\":4902:4907  token */\n      0x00\n      dup1\n      sload\n      swap1\n      0x0100\n      exp\n      swap1\n      div\n      0xffffffffffffffffffffffffffffffffffffffff\n      and\n        /* \"contracts/wethamm.sol\":4902:4916  token.transfer */\n      0xffffffffffffffffffffffffffffffffffffffff\n      and\n      0xa9059cbb\n        /* \"contracts/wethamm.sol\":4917:4927  msg.sender */\n      caller\n        /* \"contracts/wethamm.sol\":4929:4943  amountTokenOut */\n      dup4\n        /* \"contracts/wethamm.sol\":4902:4944  token.transfer(msg.sender, amountTokenOut) */\n      mload(0x40)\n      dup4\n      0xffffffff\n      and\n      0xe0\n      shl\n      dup2\n      mstore\n      0x04\n      add\n      tag_77\n      swap3\n      swap2\n      swap1\n      tag_78\n      jump\t// in\n    tag_77:\n      0x20\n      mload(0x40)\n      dup1\n      dup4\n      sub\n      dup2\n      0x00\n      dup8\n      gas\n      call\n      iszero\n      dup1\n      iszero\n      tag_80\n      jumpi\n      returndatasize\n      0x00\n      dup1\n      returndatacopy\n      revert(0x00, returndatasize)\n    tag_80:\n      pop\n      pop\n      pop\n      pop\n      mload(0x40)\n      returndatasize\n      not(0x1f)\n      0x1f\n      dup3\n      add\n      and\n      dup3\n      add\n      dup1\n      0x40\n      mstore\n      pop\n      dup2\n      add\n      swap1\n      tag_81\n      swap2\n      swap1\n      tag_69\n      jump\t// in\n    tag_81:\n        /* \"contracts/wethamm.sol\":4894:4964  require(token.transfer(msg.sender, amountTokenOut), \"Transfer failed\") */\n      tag_82\n      jumpi\n      mload(0x40)\n      0x08c379a000000000000000000000000000000000000000000000000000000000\n      dup2\n      mstore\n      0x04\n      add\n      tag_83\n      swap1\n      tag_72\n      jump\t// in\n    tag_83:\n      mload(0x40)\n      dup1\n      swap2\n      sub\n      swap1\n      revert\n    tag_82:\n        /* \"contracts/wethamm.sol\":4985:4995  msg.sender */\n      caller\n        /* \"contracts/wethamm.sol\":4980:5026  Swap(msg.sender, amountTokenOut, amountWETHIn) */\n      0xffffffffffffffffffffffffffffffffffffffff\n      and\n      0x77f92a1b6a1a11de8ca49515ad4c1fad45632dd3442167d74b90b304a3c7a758\n        /* \"contracts/wethamm.sol\":4997:5011  amountTokenOut */\n      dup3\n        /* \"contracts/wethamm.sol\":5013:5025  amountWETHIn */\n      dup5\n        /* \"contracts/wethamm.sol\":4980:5026  Swap(msg.sender, amountTokenOut, amountWETHIn) */\n      mload(0x40)\n      tag_84\n      swap3\n      swap2\n      swap1\n      tag_85\n      jump\t// in\n    tag_84:\n      mload(0x40)\n      dup1\n      swap2\n      sub\n      swap1\n      log2\n        /* \"contracts/wethamm.sol\":4623:5033  {... */\n      pop\n        /* \"contracts/wethamm.sol\":4569:5033  function swapWETHForToken(uint amountWETHIn) external {... */\n      pop\n      jump\t// out\n        /* \"contracts/wethamm.sol\":2727:2753  uint256 public reserveWETH */\n    tag_24:\n      sload(0x03)\n      dup2\n      jump\t// out\n        /* \"contracts/wethamm.sol\":2671:2687  WETH public weth */\n    tag_27:\n      0x01\n      0x00\n      swap1\n      sload\n      swap1\n      0x0100\n      exp\n      swap1\n      div\n      0xffffffffffffffffffffffffffffffffffffffff\n      and\n      dup2\n      jump\t// out\n        /* \"contracts/wethamm.sol\":3134:3535  function addLiquidity(uint amountToken, uint amountWETH) external {... */\n    tag_33:\n        /* \"contracts/wethamm.sol\":3218:3223  token */\n      0x00\n      dup1\n      sload\n      swap1\n      0x0100\n      exp\n      swap1\n      div\n      0xffffffffffffffffffffffffffffffffffffffff\n      and\n        /* \"contracts/wethamm.sol\":3218:3236  token.transferFrom */\n      0xffffffffffffffffffffffffffffffffffffffff\n      and\n      0x23b872dd\n        /* \"contracts/wethamm.sol\":3237:3247  msg.sender */\n      caller\n        /* \"contracts/wethamm.sol\":3257:3261  this */\n      address\n        /* \"contracts/wethamm.sol\":3264:3275  amountToken */\n      dup6\n        /* \"contracts/wethamm.sol\":3218:3276  token.transferFrom(msg.sender, address(this), amountToken) */\n      mload(0x40)\n      dup5\n      0xffffffff\n      and\n      0xe0\n      shl\n      dup2\n      mstore\n      0x04\n      add\n      tag_87\n      swap4\n      swap3\n      swap2\n      swap1\n      tag_65\n      jump\t// in\n    tag_87:\n      0x20\n      mload(0x40)\n      dup1\n      dup4\n      sub\n      dup2\n      0x00\n      dup8\n      gas\n      call\n      iszero\n      dup1\n      iszero\n      tag_89\n      jumpi\n      returndatasize\n      0x00\n      dup1\n      returndatacopy\n      revert(0x00, returndatasize)\n    tag_89:\n      pop\n      pop\n      pop\n      pop\n      mload(0x40)\n      returndatasize\n      not(0x1f)\n      0x1f\n      dup3\n      add\n      and\n      dup3\n      add\n      dup1\n      0x40\n      mstore\n      pop\n      dup2\n      add\n      swap1\n      tag_90\n      swap2\n      swap1\n      tag_69\n      jump\t// in\n    tag_90:\n        /* \"contracts/wethamm.sol\":3210:3296  require(token.transferFrom(msg.sender, address(this), amountToken), \"Transfer failed\") */\n      tag_91\n      jumpi\n      mload(0x40)\n      0x08c379a000000000000000000000000000000000000000000000000000000000\n      dup2\n      mstore\n      0x04\n      add\n      tag_92\n      swap1\n      tag_72\n      jump\t// in\n    tag_92:\n      mload(0x40)\n      dup1\n      swap2\n      sub\n      swap1\n      revert\n    tag_91:\n        /* \"contracts/wethamm.sol\":3314:3318  weth */\n      0x01\n      0x00\n      swap1\n      sload\n      swap1\n      0x0100\n      exp\n      swap1\n      div\n      0xffffffffffffffffffffffffffffffffffffffff\n      and\n        /* \"contracts/wethamm.sol\":3314:3331  weth.transferFrom */\n      0xffffffffffffffffffffffffffffffffffffffff\n      and\n      0x23b872dd\n        /* \"contracts/wethamm.sol\":3332:3342  msg.sender */\n      caller\n        /* \"contracts/wethamm.sol\":3352:3356  this */\n      address\n        /* \"contracts/wethamm.sol\":3359:3369  amountWETH */\n      dup5\n        /* \"contracts/wethamm.sol\":3314:3370  weth.transferFrom(msg.sender, address(this), amountWETH) */\n      mload(0x40)\n      dup5\n      0xffffffff\n      and\n      0xe0\n      shl\n      dup2\n      mstore\n      0x04\n      add\n      tag_93\n      swap4\n      swap3\n      swap2\n      swap1\n      tag_65\n      jump\t// in\n    tag_93:\n      0x20\n      mload(0x40)\n      dup1\n      dup4\n      sub\n      dup2\n      0x00\n      dup8\n      gas\n      call\n      iszero\n      dup1\n      iszero\n      tag_95\n      jumpi\n      returndatasize\n      0x00\n      dup1\n      returndatacopy\n      revert(0x00, returndatasize)\n    tag_95:\n      pop\n      pop\n      pop\n      pop\n      mload(0x40)\n      returndatasize\n      not(0x1f)\n      0x1f\n      dup3\n      add\n      and\n      dup3\n      add\n      dup1\n      0x40\n      mstore\n      pop\n      dup2\n      add\n      swap1\n      tag_96\n      swap2\n      swap1\n      tag_69\n      jump\t// in\n    tag_96:\n        /* \"contracts/wethamm.sol\":3306:3390  require(weth.transferFrom(msg.sender, address(this), amountWETH), \"Transfer failed\") */\n      tag_97\n      jumpi\n      mload(0x40)\n      0x08c379a000000000000000000000000000000000000000000000000000000000\n      dup2\n      mstore\n      0x04\n      add\n      tag_98\n      swap1\n      tag_72\n      jump\t// in\n    tag_98:\n      mload(0x40)\n      dup1\n      swap2\n      sub\n      swap1\n      revert\n    tag_97:\n        /* \"contracts/wethamm.sol\":3417:3428  amountToken */\n      dup2\n        /* \"contracts/wethamm.sol\":3401:3413  reserveToken */\n      0x02\n      0x00\n        /* \"contracts/wethamm.sol\":3401:3428  reserveToken += amountToken */\n      dup3\n      dup3\n      sload\n      tag_99\n      swap2\n      swap1\n      tag_60\n      jump\t// in\n    tag_99:\n      swap3\n      pop\n      pop\n      dup2\n      swap1\n      sstore\n      pop\n        /* \"contracts/wethamm.sol\":3453:3463  amountWETH */\n      dup1\n        /* \"contracts/wethamm.sol\":3438:3449  reserveWETH */\n      0x03\n      0x00\n        /* \"contracts/wethamm.sol\":3438:3463  reserveWETH += amountWETH */\n      dup3\n      dup3\n      sload\n      tag_100\n      swap2\n      swap1\n      tag_60\n      jump\t// in\n    tag_100:\n      swap3\n      pop\n      pop\n      dup2\n      swap1\n      sstore\n      pop\n        /* \"contracts/wethamm.sol\":3492:3502  msg.sender */\n      caller\n        /* \"contracts/wethamm.sol\":3479:3528  AddLiquidity(msg.sender, amountToken, amountWETH) */\n      0xffffffffffffffffffffffffffffffffffffffff\n      and\n      0x06239653922ac7bea6aa2b19dc486b9361821d37712eb796adfd38d81de278ca\n        /* \"contracts/wethamm.sol\":3504:3515  amountToken */\n      dup4\n        /* \"contracts/wethamm.sol\":3517:3527  amountWETH */\n      dup4\n        /* \"contracts/wethamm.sol\":3479:3528  AddLiquidity(msg.sender, amountToken, amountWETH) */\n      mload(0x40)\n      tag_101\n      swap3\n      swap2\n      swap1\n      tag_85\n      jump\t// in\n    tag_101:\n      mload(0x40)\n      dup1\n      swap2\n      sub\n      swap1\n      log2\n        /* \"contracts/wethamm.sol\":3134:3535  function addLiquidity(uint amountToken, uint amountWETH) external {... */\n      pop\n      pop\n      jump\t// out\n        /* \"contracts/wethamm.sol\":3564:4034  function removeLiquidity(uint amountToken, uint amountWETH) external {... */\n    tag_36:\n        /* \"contracts/wethamm.sol\":3667:3678  amountToken */\n      dup2\n        /* \"contracts/wethamm.sol\":3651:3663  reserveToken */\n      sload(0x02)\n        /* \"contracts/wethamm.sol\":3651:3678  reserveToken >= amountToken */\n      lt\n      iszero\n        /* \"contracts/wethamm.sol\":3651:3707  reserveToken >= amountToken && reserveWETH >= amountWETH */\n      dup1\n      iszero\n      tag_103\n      jumpi\n      pop\n        /* \"contracts/wethamm.sol\":3697:3707  amountWETH */\n      dup1\n        /* \"contracts/wethamm.sol\":3682:3693  reserveWETH */\n      sload(0x03)\n        /* \"contracts/wethamm.sol\":3682:3707  reserveWETH >= amountWETH */\n      lt\n      iszero\n        /* \"contracts/wethamm.sol\":3651:3707  reserveToken >= amountToken && reserveWETH >= amountWETH */\n    tag_103:\n        /* \"contracts/wethamm.sol\":3643:3733  require(reserveToken >= amountToken && reserveWETH >= amountWETH, \"Insufficient reserves\") */\n      tag_104\n      jumpi\n      mload(0x40)\n      0x08c379a000000000000000000000000000000000000000000000000000000000\n      dup2\n      mstore\n      0x04\n      add\n      tag_105\n      swap1\n      tag_106\n      jump\t// in\n    tag_105:\n      mload(0x40)\n      dup1\n      swap2\n      sub\n      swap1\n      revert\n    tag_104:\n        /* \"contracts/wethamm.sol\":3760:3771  amountToken */\n      dup2\n        /* \"contracts/wethamm.sol\":3744:3756  reserveToken */\n      0x02\n      0x00\n        /* \"contracts/wethamm.sol\":3744:3771  reserveToken -= amountToken */\n      dup3\n      dup3\n      sload\n      tag_107\n      swap2\n      swap1\n      tag_76\n      jump\t// in\n    tag_107:\n      swap3\n      pop\n      pop\n      dup2\n      swap1\n      sstore\n      pop\n        /* \"contracts/wethamm.sol\":3796:3806  amountWETH */\n      dup1\n        /* \"contracts/wethamm.sol\":3781:3792  reserveWETH */\n      0x03\n      0x00\n        /* \"contracts/wethamm.sol\":3781:3806  reserveWETH -= amountWETH */\n      dup3\n      dup3\n      sload\n      tag_108\n      swap2\n      swap1\n      tag_76\n      jump\t// in\n    tag_108:\n      swap3\n      pop\n      pop\n      dup2\n      swap1\n      sstore\n      pop\n        /* \"contracts/wethamm.sol\":3825:3830  token */\n      0x00\n      dup1\n      sload\n      swap1\n      0x0100\n      exp\n      swap1\n      div\n      0xffffffffffffffffffffffffffffffffffffffff\n      and\n        /* \"contracts/wethamm.sol\":3825:3839  token.transfer */\n      0xffffffffffffffffffffffffffffffffffffffff\n      and\n      0xa9059cbb\n        /* \"contracts/wethamm.sol\":3840:3850  msg.sender */\n      caller\n        /* \"contracts/wethamm.sol\":3852:3863  amountToken */\n      dup5\n        /* \"contracts/wethamm.sol\":3825:3864  token.transfer(msg.sender, amountToken) */\n      mload(0x40)\n      dup4\n      0xffffffff\n      and\n      0xe0\n      shl\n      dup2\n      mstore\n      0x04\n      add\n      tag_109\n      swap3\n      swap2\n      swap1\n      tag_78\n      jump\t// in\n    tag_109:\n      0x20\n      mload(0x40)\n      dup1\n      dup4\n      sub\n      dup2\n      0x00\n      dup8\n      gas\n      call\n      iszero\n      dup1\n      iszero\n      tag_111\n      jumpi\n      returndatasize\n      0x00\n      dup1\n      returndatacopy\n      revert(0x00, returndatasize)\n    tag_111:\n      pop\n      pop\n      pop\n      pop\n      mload(0x40)\n      returndatasize\n      not(0x1f)\n      0x1f\n      dup3\n      add\n      and\n      dup3\n      add\n      dup1\n      0x40\n      mstore\n      pop\n      dup2\n      add\n      swap1\n      tag_112\n      swap2\n      swap1\n      tag_69\n      jump\t// in\n    tag_112:\n        /* \"contracts/wethamm.sol\":3817:3884  require(token.transfer(msg.sender, amountToken), \"Transfer failed\") */\n      tag_113\n      jumpi\n      mload(0x40)\n      0x08c379a000000000000000000000000000000000000000000000000000000000\n      dup2\n      mstore\n      0x04\n      add\n      tag_114\n      swap1\n      tag_72\n      jump\t// in\n    tag_114:\n      mload(0x40)\n      dup1\n      swap2\n      sub\n      swap1\n      revert\n    tag_113:\n        /* \"contracts/wethamm.sol\":3902:3906  weth */\n      0x01\n      0x00\n      swap1\n      sload\n      swap1\n      0x0100\n      exp\n      swap1\n      div\n      0xffffffffffffffffffffffffffffffffffffffff\n      and\n        /* \"contracts/wethamm.sol\":3902:3915  weth.transfer */\n      0xffffffffffffffffffffffffffffffffffffffff\n      and\n      0xa9059cbb\n        /* \"contracts/wethamm.sol\":3916:3926  msg.sender */\n      caller\n        /* \"contracts/wethamm.sol\":3928:3938  amountWETH */\n      dup4\n        /* \"contracts/wethamm.sol\":3902:3939  weth.transfer(msg.sender, amountWETH) */\n      mload(0x40)\n      dup4\n      0xffffffff\n      and\n      0xe0\n      shl\n      dup2\n      mstore\n      0x04\n      add\n      tag_115\n      swap3\n      swap2\n      swap1\n      tag_78\n      jump\t// in\n    tag_115:\n      0x20\n      mload(0x40)\n      dup1\n      dup4\n      sub\n      dup2\n      0x00\n      dup8\n      gas\n      call\n      iszero\n      dup1\n      iszero\n      tag_117\n      jumpi\n      returndatasize\n      0x00\n      dup1\n      returndatacopy\n      revert(0x00, returndatasize)\n    tag_117:\n      pop\n      pop\n      pop\n      pop\n      mload(0x40)\n      returndatasize\n      not(0x1f)\n      0x1f\n      dup3\n      add\n      and\n      dup3\n      add\n      dup1\n      0x40\n      mstore\n      pop\n      dup2\n      add\n      swap1\n      tag_118\n      swap2\n      swap1\n      tag_69\n      jump\t// in\n    tag_118:\n        /* \"contracts/wethamm.sol\":3894:3959  require(weth.transfer(msg.sender, amountWETH), \"Transfer failed\") */\n      tag_119\n      jumpi\n      mload(0x40)\n      0x08c379a000000000000000000000000000000000000000000000000000000000\n      dup2\n      mstore\n      0x04\n      add\n      tag_120\n      swap1\n      tag_72\n      jump\t// in\n    tag_120:\n      mload(0x40)\n      dup1\n      swap2\n      sub\n      swap1\n      revert\n    tag_119:\n        /* \"contracts/wethamm.sol\":3991:4001  msg.sender */\n      caller\n        /* \"contracts/wethamm.sol\":3975:4027  RemoveLiquidity(msg.sender, amountToken, amountWETH) */\n      0xffffffffffffffffffffffffffffffffffffffff\n      and\n      0x0fbf06c058b90cb038a618f8c2acbf6145f8b3570fd1fa56abb8f0f3f05b36e8\n        /* \"contracts/wethamm.sol\":4003:4014  amountToken */\n      dup4\n        /* \"contracts/wethamm.sol\":4016:4026  amountWETH */\n      dup4\n        /* \"contracts/wethamm.sol\":3975:4027  RemoveLiquidity(msg.sender, amountToken, amountWETH) */\n      mload(0x40)\n      tag_121\n      swap3\n      swap2\n      swap1\n      tag_85\n      jump\t// in\n    tag_121:\n      mload(0x40)\n      dup1\n      swap2\n      sub\n      swap1\n      log2\n        /* \"contracts/wethamm.sol\":3564:4034  function removeLiquidity(uint amountToken, uint amountWETH) external {... */\n      pop\n      pop\n      jump\t// out\n        /* \"contracts/wethamm.sol\":4069:4534  function swapTokenForWETH(uint amountTokenIn) external {... */\n    tag_39:\n        /* \"contracts/wethamm.sol\":4142:4147  token */\n      0x00\n      dup1\n      sload\n      swap1\n      0x0100\n      exp\n      swap1\n      div\n      0xffffffffffffffffffffffffffffffffffffffff\n      and\n        /* \"contracts/wethamm.sol\":4142:4160  token.transferFrom */\n      0xffffffffffffffffffffffffffffffffffffffff\n      and\n      0x23b872dd\n        /* \"contracts/wethamm.sol\":4161:4171  msg.sender */\n      caller\n        /* \"contracts/wethamm.sol\":4181:4185  this */\n      address\n        /* \"contracts/wethamm.sol\":4188:4201  amountTokenIn */\n      dup5\n        /* \"contracts/wethamm.sol\":4142:4202  token.transferFrom(msg.sender, address(this), amountTokenIn) */\n      mload(0x40)\n      dup5\n      0xffffffff\n      and\n      0xe0\n      shl\n      dup2\n      mstore\n      0x04\n      add\n      tag_123\n      swap4\n      swap3\n      swap2\n      swap1\n      tag_65\n      jump\t// in\n    tag_123:\n      0x20\n      mload(0x40)\n      dup1\n      dup4\n      sub\n      dup2\n      0x00\n      dup8\n      gas\n      call\n      iszero\n      dup1\n      iszero\n      tag_125\n      jumpi\n      returndatasize\n      0x00\n      dup1\n      returndatacopy\n      revert(0x00, returndatasize)\n    tag_125:\n      pop\n      pop\n      pop\n      pop\n      mload(0x40)\n      returndatasize\n      not(0x1f)\n      0x1f\n      dup3\n      add\n      and\n      dup3\n      add\n      dup1\n      0x40\n      mstore\n      pop\n      dup2\n      add\n      swap1\n      tag_126\n      swap2\n      swap1\n      tag_69\n      jump\t// in\n    tag_126:\n        /* \"contracts/wethamm.sol\":4134:4222  require(token.transferFrom(msg.sender, address(this), amountTokenIn), \"Transfer failed\") */\n      tag_127\n      jumpi\n      mload(0x40)\n      0x08c379a000000000000000000000000000000000000000000000000000000000\n      dup2\n      mstore\n      0x04\n      add\n      tag_128\n      swap1\n      tag_72\n      jump\t// in\n    tag_128:\n      mload(0x40)\n      dup1\n      swap2\n      sub\n      swap1\n      revert\n    tag_127:\n        /* \"contracts/wethamm.sol\":4233:4251  uint amountWETHOut */\n      0x00\n        /* \"contracts/wethamm.sol\":4254:4308  getAmountOut(amountTokenIn, reserveToken, reserveWETH) */\n      tag_129\n        /* \"contracts/wethamm.sol\":4267:4280  amountTokenIn */\n      dup3\n        /* \"contracts/wethamm.sol\":4282:4294  reserveToken */\n      sload(0x02)\n        /* \"contracts/wethamm.sol\":4296:4307  reserveWETH */\n      sload(0x03)\n        /* \"contracts/wethamm.sol\":4254:4266  getAmountOut */\n      tag_16\n        /* \"contracts/wethamm.sol\":4254:4308  getAmountOut(amountTokenIn, reserveToken, reserveWETH) */\n      jump\t// in\n    tag_129:\n        /* \"contracts/wethamm.sol\":4233:4308  uint amountWETHOut = getAmountOut(amountTokenIn, reserveToken, reserveWETH) */\n      swap1\n      pop\n        /* \"contracts/wethamm.sol\":4335:4348  amountTokenIn */\n      dup2\n        /* \"contracts/wethamm.sol\":4319:4331  reserveToken */\n      0x02\n      0x00\n        /* \"contracts/wethamm.sol\":4319:4348  reserveToken += amountTokenIn */\n      dup3\n      dup3\n      sload\n      tag_130\n      swap2\n      swap1\n      tag_60\n      jump\t// in\n    tag_130:\n      swap3\n      pop\n      pop\n      dup2\n      swap1\n      sstore\n      pop\n        /* \"contracts/wethamm.sol\":4373:4386  amountWETHOut */\n      dup1\n        /* \"contracts/wethamm.sol\":4358:4369  reserveWETH */\n      0x03\n      0x00\n        /* \"contracts/wethamm.sol\":4358:4386  reserveWETH -= amountWETHOut */\n      dup3\n      dup3\n      sload\n      tag_131\n      swap2\n      swap1\n      tag_76\n      jump\t// in\n    tag_131:\n      swap3\n      pop\n      pop\n      dup2\n      swap1\n      sstore\n      pop\n        /* \"contracts/wethamm.sol\":4405:4409  weth */\n      0x01\n      0x00\n      swap1\n      sload\n      swap1\n      0x0100\n      exp\n      swap1\n      div\n      0xffffffffffffffffffffffffffffffffffffffff\n      and\n        /* \"contracts/wethamm.sol\":4405:4418  weth.transfer */\n      0xffffffffffffffffffffffffffffffffffffffff\n      and\n      0xa9059cbb\n        /* \"contracts/wethamm.sol\":4419:4429  msg.sender */\n      caller\n        /* \"contracts/wethamm.sol\":4431:4444  amountWETHOut */\n      dup4\n        /* \"contracts/wethamm.sol\":4405:4445  weth.transfer(msg.sender, amountWETHOut) */\n      mload(0x40)\n      dup4\n      0xffffffff\n      and\n      0xe0\n      shl\n      dup2\n      mstore\n      0x04\n      add\n      tag_132\n      swap3\n      swap2\n      swap1\n      tag_78\n      jump\t// in\n    tag_132:\n      0x20\n      mload(0x40)\n      dup1\n      dup4\n      sub\n      dup2\n      0x00\n      dup8\n      gas\n      call\n      iszero\n      dup1\n      iszero\n      tag_134\n      jumpi\n      returndatasize\n      0x00\n      dup1\n      returndatacopy\n      revert(0x00, returndatasize)\n    tag_134:\n      pop\n      pop\n      pop\n      pop\n      mload(0x40)\n      returndatasize\n      not(0x1f)\n      0x1f\n      dup3\n      add\n      and\n      dup3\n      add\n      dup1\n      0x40\n      mstore\n      pop\n      dup2\n      add\n      swap1\n      tag_135\n      swap2\n      swap1\n      tag_69\n      jump\t// in\n    tag_135:\n        /* \"contracts/wethamm.sol\":4397:4465  require(weth.transfer(msg.sender, amountWETHOut), \"Transfer failed\") */\n      tag_136\n      jumpi\n      mload(0x40)\n      0x08c379a000000000000000000000000000000000000000000000000000000000\n      dup2\n      mstore\n      0x04\n      add\n      tag_137\n      swap1\n      tag_72\n      jump\t// in\n    tag_137:\n      mload(0x40)\n      dup1\n      swap2\n      sub\n      swap1\n      revert\n    tag_136:\n        /* \"contracts/wethamm.sol\":4486:4496  msg.sender */\n      caller\n        /* \"contracts/wethamm.sol\":4481:4527  Swap(msg.sender, amountTokenIn, amountWETHOut) */\n      0xffffffffffffffffffffffffffffffffffffffff\n      and\n      0x77f92a1b6a1a11de8ca49515ad4c1fad45632dd3442167d74b90b304a3c7a758\n        /* \"contracts/wethamm.sol\":4498:4511  amountTokenIn */\n      dup4\n        /* \"contracts/wethamm.sol\":4513:4526  amountWETHOut */\n      dup4\n        /* \"contracts/wethamm.sol\":4481:4527  Swap(msg.sender, amountTokenIn, amountWETHOut) */\n      mload(0x40)\n      tag_138\n      swap3\n      swap2\n      swap1\n      tag_85\n      jump\t// in\n    tag_138:\n      mload(0x40)\n      dup1\n      swap2\n      sub\n      swap1\n      log2\n        /* \"contracts/wethamm.sol\":4124:4534  {... */\n      pop\n        /* \"contracts/wethamm.sol\":4069:4534  function swapTokenForWETH(uint amountTokenIn) external {... */\n      pop\n      jump\t// out\n        /* \"contracts/wethamm.sol\":2694:2721  uint256 public reserveToken */\n    tag_41:\n      sload(0x02)\n      dup2\n      jump\t// out\n        /* \"contracts/wethamm.sol\":2620:2639  IERC20 public token */\n    tag_44:\n      0x00\n      dup1\n      sload\n      swap1\n      0x0100\n      exp\n      swap1\n      div\n      0xffffffffffffffffffffffffffffffffffffffff\n      and\n      dup2\n      jump\t// out\n        /* \"#utility.yul\":88:205   */\n    tag_140:\n        /* \"#utility.yul\":197:198   */\n      0x00\n        /* \"#utility.yul\":194:195   */\n      dup1\n        /* \"#utility.yul\":187:199   */\n      revert\n        /* \"#utility.yul\":334:411   */\n    tag_142:\n        /* \"#utility.yul\":371:378   */\n      0x00\n        /* \"#utility.yul\":400:405   */\n      dup2\n        /* \"#utility.yul\":389:405   */\n      swap1\n      pop\n        /* \"#utility.yul\":334:411   */\n      swap2\n      swap1\n      pop\n      jump\t// out\n        /* \"#utility.yul\":417:539   */\n    tag_143:\n        /* \"#utility.yul\":490:514   */\n      tag_177\n        /* \"#utility.yul\":508:513   */\n      dup2\n        /* \"#utility.yul\":490:514   */\n      tag_142\n      jump\t// in\n    tag_177:\n        /* \"#utility.yul\":483:488   */\n      dup2\n        /* \"#utility.yul\":480:515   */\n      eq\n        /* \"#utility.yul\":470:533   */\n      tag_178\n      jumpi\n        /* \"#utility.yul\":529:530   */\n      0x00\n        /* \"#utility.yul\":526:527   */\n      dup1\n        /* \"#utility.yul\":519:531   */\n      revert\n        /* \"#utility.yul\":470:533   */\n    tag_178:\n        /* \"#utility.yul\":417:539   */\n      pop\n      jump\t// out\n        /* \"#utility.yul\":545:684   */\n    tag_144:\n        /* \"#utility.yul\":591:596   */\n      0x00\n        /* \"#utility.yul\":629:635   */\n      dup2\n        /* \"#utility.yul\":616:636   */\n      calldataload\n        /* \"#utility.yul\":607:636   */\n      swap1\n      pop\n        /* \"#utility.yul\":645:678   */\n      tag_180\n        /* \"#utility.yul\":672:677   */\n      dup2\n        /* \"#utility.yul\":645:678   */\n      tag_143\n      jump\t// in\n    tag_180:\n        /* \"#utility.yul\":545:684   */\n      swap3\n      swap2\n      pop\n      pop\n      jump\t// out\n        /* \"#utility.yul\":690:1309   */\n    tag_15:\n        /* \"#utility.yul\":767:773   */\n      0x00\n        /* \"#utility.yul\":775:781   */\n      dup1\n        /* \"#utility.yul\":783:789   */\n      0x00\n        /* \"#utility.yul\":832:834   */\n      0x60\n        /* \"#utility.yul\":820:829   */\n      dup5\n        /* \"#utility.yul\":811:818   */\n      dup7\n        /* \"#utility.yul\":807:830   */\n      sub\n        /* \"#utility.yul\":803:835   */\n      slt\n        /* \"#utility.yul\":800:919   */\n      iszero\n      tag_182\n      jumpi\n        /* \"#utility.yul\":838:917   */\n      tag_183\n      tag_140\n      jump\t// in\n    tag_183:\n        /* \"#utility.yul\":800:919   */\n    tag_182:\n        /* \"#utility.yul\":958:959   */\n      0x00\n        /* \"#utility.yul\":983:1036   */\n      tag_184\n        /* \"#utility.yul\":1028:1035   */\n      dup7\n        /* \"#utility.yul\":1019:1025   */\n      dup3\n        /* \"#utility.yul\":1008:1017   */\n      dup8\n        /* \"#utility.yul\":1004:1026   */\n      add\n        /* \"#utility.yul\":983:1036   */\n      tag_144\n      jump\t// in\n    tag_184:\n        /* \"#utility.yul\":973:1036   */\n      swap4\n      pop\n        /* \"#utility.yul\":929:1046   */\n      pop\n        /* \"#utility.yul\":1085:1087   */\n      0x20\n        /* \"#utility.yul\":1111:1164   */\n      tag_185\n        /* \"#utility.yul\":1156:1163   */\n      dup7\n        /* \"#utility.yul\":1147:1153   */\n      dup3\n        /* \"#utility.yul\":1136:1145   */\n      dup8\n        /* \"#utility.yul\":1132:1154   */\n      add\n        /* \"#utility.yul\":1111:1164   */\n      tag_144\n      jump\t// in\n    tag_185:\n        /* \"#utility.yul\":1101:1164   */\n      swap3\n      pop\n        /* \"#utility.yul\":1056:1174   */\n      pop\n        /* \"#utility.yul\":1213:1215   */\n      0x40\n        /* \"#utility.yul\":1239:1292   */\n      tag_186\n        /* \"#utility.yul\":1284:1291   */\n      dup7\n        /* \"#utility.yul\":1275:1281   */\n      dup3\n        /* \"#utility.yul\":1264:1273   */\n      dup8\n        /* \"#utility.yul\":1260:1282   */\n      add\n        /* \"#utility.yul\":1239:1292   */\n      tag_144\n      jump\t// in\n    tag_186:\n        /* \"#utility.yul\":1229:1292   */\n      swap2\n      pop\n        /* \"#utility.yul\":1184:1302   */\n      pop\n        /* \"#utility.yul\":690:1309   */\n      swap3\n      pop\n      swap3\n      pop\n      swap3\n      jump\t// out\n        /* \"#utility.yul\":1315:1433   */\n    tag_145:\n        /* \"#utility.yul\":1402:1426   */\n      tag_188\n        /* \"#utility.yul\":1420:1425   */\n      dup2\n        /* \"#utility.yul\":1402:1426   */\n      tag_142\n      jump\t// in\n    tag_188:\n        /* \"#utility.yul\":1397:1400   */\n      dup3\n        /* \"#utility.yul\":1390:1427   */\n      mstore\n        /* \"#utility.yul\":1315:1433   */\n      pop\n      pop\n      jump\t// out\n        /* \"#utility.yul\":1439:1661   */\n    tag_18:\n        /* \"#utility.yul\":1532:1536   */\n      0x00\n        /* \"#utility.yul\":1570:1572   */\n      0x20\n        /* \"#utility.yul\":1559:1568   */\n      dup3\n        /* \"#utility.yul\":1555:1573   */\n      add\n        /* \"#utility.yul\":1547:1573   */\n      swap1\n      pop\n        /* \"#utility.yul\":1583:1654   */\n      tag_190\n        /* \"#utility.yul\":1651:1652   */\n      0x00\n        /* \"#utility.yul\":1640:1649   */\n      dup4\n        /* \"#utility.yul\":1636:1653   */\n      add\n        /* \"#utility.yul\":1627:1633   */\n      dup5\n        /* \"#utility.yul\":1583:1654   */\n      tag_145\n      jump\t// in\n    tag_190:\n        /* \"#utility.yul\":1439:1661   */\n      swap3\n      swap2\n      pop\n      pop\n      jump\t// out\n        /* \"#utility.yul\":1667:1996   */\n    tag_21:\n        /* \"#utility.yul\":1726:1732   */\n      0x00\n        /* \"#utility.yul\":1775:1777   */\n      0x20\n        /* \"#utility.yul\":1763:1772   */\n      dup3\n        /* \"#utility.yul\":1754:1761   */\n      dup5\n        /* \"#utility.yul\":1750:1773   */\n      sub\n        /* \"#utility.yul\":1746:1778   */\n      slt\n        /* \"#utility.yul\":1743:1862   */\n      iszero\n      tag_192\n      jumpi\n        /* \"#utility.yul\":1781:1860   */\n      tag_193\n      tag_140\n      jump\t// in\n    tag_193:\n        /* \"#utility.yul\":1743:1862   */\n    tag_192:\n        /* \"#utility.yul\":1901:1902   */\n      0x00\n        /* \"#utility.yul\":1926:1979   */\n      tag_194\n        /* \"#utility.yul\":1971:1978   */\n      dup5\n        /* \"#utility.yul\":1962:1968   */\n      dup3\n        /* \"#utility.yul\":1951:1960   */\n      dup6\n        /* \"#utility.yul\":1947:1969   */\n      add\n        /* \"#utility.yul\":1926:1979   */\n      tag_144\n      jump\t// in\n    tag_194:\n        /* \"#utility.yul\":1916:1979   */\n      swap2\n      pop\n        /* \"#utility.yul\":1872:1989   */\n      pop\n        /* \"#utility.yul\":1667:1996   */\n      swap3\n      swap2\n      pop\n      pop\n      jump\t// out\n        /* \"#utility.yul\":2002:2128   */\n    tag_146:\n        /* \"#utility.yul\":2039:2046   */\n      0x00\n        /* \"#utility.yul\":2079:2121   */\n      0xffffffffffffffffffffffffffffffffffffffff\n        /* \"#utility.yul\":2072:2077   */\n      dup3\n        /* \"#utility.yul\":2068:2122   */\n      and\n        /* \"#utility.yul\":2057:2122   */\n      swap1\n      pop\n        /* \"#utility.yul\":2002:2128   */\n      swap2\n      swap1\n      pop\n      jump\t// out\n        /* \"#utility.yul\":2134:2194   */\n    tag_147:\n        /* \"#utility.yul\":2162:2165   */\n      0x00\n        /* \"#utility.yul\":2183:2188   */\n      dup2\n        /* \"#utility.yul\":2176:2188   */\n      swap1\n      pop\n        /* \"#utility.yul\":2134:2194   */\n      swap2\n      swap1\n      pop\n      jump\t// out\n        /* \"#utility.yul\":2200:2342   */\n    tag_148:\n        /* \"#utility.yul\":2250:2259   */\n      0x00\n        /* \"#utility.yul\":2283:2336   */\n      tag_198\n        /* \"#utility.yul\":2301:2335   */\n      tag_199\n        /* \"#utility.yul\":2310:2334   */\n      tag_200\n        /* \"#utility.yul\":2328:2333   */\n      dup5\n        /* \"#utility.yul\":2310:2334   */\n      tag_146\n      jump\t// in\n    tag_200:\n        /* \"#utility.yul\":2301:2335   */\n      tag_147\n      jump\t// in\n    tag_199:\n        /* \"#utility.yul\":2283:2336   */\n      tag_146\n      jump\t// in\n    tag_198:\n        /* \"#utility.yul\":2270:2336   */\n      swap1\n      pop\n        /* \"#utility.yul\":2200:2342   */\n      swap2\n      swap1\n      pop\n      jump\t// out\n        /* \"#utility.yul\":2348:2482   */\n    tag_149:\n        /* \"#utility.yul\":2406:2415   */\n      0x00\n        /* \"#utility.yul\":2439:2476   */\n      tag_202\n        /* \"#utility.yul\":2470:2475   */\n      dup3\n        /* \"#utility.yul\":2439:2476   */\n      tag_148\n      jump\t// in\n    tag_202:\n        /* \"#utility.yul\":2426:2476   */\n      swap1\n      pop\n        /* \"#utility.yul\":2348:2482   */\n      swap2\n      swap1\n      pop\n      jump\t// out\n        /* \"#utility.yul\":2488:2642   */\n    tag_150:\n        /* \"#utility.yul\":2558:2567   */\n      0x00\n        /* \"#utility.yul\":2591:2636   */\n      tag_204\n        /* \"#utility.yul\":2630:2635   */\n      dup3\n        /* \"#utility.yul\":2591:2636   */\n      tag_149\n      jump\t// in\n    tag_204:\n        /* \"#utility.yul\":2578:2636   */\n      swap1\n      pop\n        /* \"#utility.yul\":2488:2642   */\n      swap2\n      swap1\n      pop\n      jump\t// out\n        /* \"#utility.yul\":2648:2819   */\n    tag_151:\n        /* \"#utility.yul\":2755:2812   */\n      tag_206\n        /* \"#utility.yul\":2806:2811   */\n      dup2\n        /* \"#utility.yul\":2755:2812   */\n      tag_150\n      jump\t// in\n    tag_206:\n        /* \"#utility.yul\":2750:2753   */\n      dup3\n        /* \"#utility.yul\":2743:2813   */\n      mstore\n        /* \"#utility.yul\":2648:2819   */\n      pop\n      pop\n      jump\t// out\n        /* \"#utility.yul\":2825:3087   */\n    tag_29:\n        /* \"#utility.yul\":2938:2942   */\n      0x00\n        /* \"#utility.yul\":2976:2978   */\n      0x20\n        /* \"#utility.yul\":2965:2974   */\n      dup3\n        /* \"#utility.yul\":2961:2979   */\n      add\n        /* \"#utility.yul\":2953:2979   */\n      swap1\n      pop\n        /* \"#utility.yul\":2989:3080   */\n      tag_208\n        /* \"#utility.yul\":3077:3078   */\n      0x00\n        /* \"#utility.yul\":3066:3075   */\n      dup4\n        /* \"#utility.yul\":3062:3079   */\n      add\n        /* \"#utility.yul\":3053:3059   */\n      dup5\n        /* \"#utility.yul\":2989:3080   */\n      tag_151\n      jump\t// in\n    tag_208:\n        /* \"#utility.yul\":2825:3087   */\n      swap3\n      swap2\n      pop\n      pop\n      jump\t// out\n        /* \"#utility.yul\":3093:3567   */\n    tag_32:\n        /* \"#utility.yul\":3161:3167   */\n      0x00\n        /* \"#utility.yul\":3169:3175   */\n      dup1\n        /* \"#utility.yul\":3218:3220   */\n      0x40\n        /* \"#utility.yul\":3206:3215   */\n      dup4\n        /* \"#utility.yul\":3197:3204   */\n      dup6\n        /* \"#utility.yul\":3193:3216   */\n      sub\n        /* \"#utility.yul\":3189:3221   */\n      slt\n        /* \"#utility.yul\":3186:3305   */\n      iszero\n      tag_210\n      jumpi\n        /* \"#utility.yul\":3224:3303   */\n      tag_211\n      tag_140\n      jump\t// in\n    tag_211:\n        /* \"#utility.yul\":3186:3305   */\n    tag_210:\n        /* \"#utility.yul\":3344:3345   */\n      0x00\n        /* \"#utility.yul\":3369:3422   */\n      tag_212\n        /* \"#utility.yul\":3414:3421   */\n      dup6\n        /* \"#utility.yul\":3405:3411   */\n      dup3\n        /* \"#utility.yul\":3394:3403   */\n      dup7\n        /* \"#utility.yul\":3390:3412   */\n      add\n        /* \"#utility.yul\":3369:3422   */\n      tag_144\n      jump\t// in\n    tag_212:\n        /* \"#utility.yul\":3359:3422   */\n      swap3\n      pop\n        /* \"#utility.yul\":3315:3432   */\n      pop\n        /* \"#utility.yul\":3471:3473   */\n      0x20\n        /* \"#utility.yul\":3497:3550   */\n      tag_213\n        /* \"#utility.yul\":3542:3549   */\n      dup6\n        /* \"#utility.yul\":3533:3539   */\n      dup3\n        /* \"#utility.yul\":3522:3531   */\n      dup7\n        /* \"#utility.yul\":3518:3540   */\n      add\n        /* \"#utility.yul\":3497:3550   */\n      tag_144\n      jump\t// in\n    tag_213:\n        /* \"#utility.yul\":3487:3550   */\n      swap2\n      pop\n        /* \"#utility.yul\":3442:3560   */\n      pop\n        /* \"#utility.yul\":3093:3567   */\n      swap3\n      pop\n      swap3\n      swap1\n      pop\n      jump\t// out\n        /* \"#utility.yul\":3573:3699   */\n    tag_152:\n        /* \"#utility.yul\":3623:3632   */\n      0x00\n        /* \"#utility.yul\":3656:3693   */\n      tag_215\n        /* \"#utility.yul\":3687:3692   */\n      dup3\n        /* \"#utility.yul\":3656:3693   */\n      tag_148\n      jump\t// in\n    tag_215:\n        /* \"#utility.yul\":3643:3693   */\n      swap1\n      pop\n        /* \"#utility.yul\":3573:3699   */\n      swap2\n      swap1\n      pop\n      jump\t// out\n        /* \"#utility.yul\":3705:3844   */\n    tag_153:\n        /* \"#utility.yul\":3768:3777   */\n      0x00\n        /* \"#utility.yul\":3801:3838   */\n      tag_217\n        /* \"#utility.yul\":3832:3837   */\n      dup3\n        /* \"#utility.yul\":3801:3838   */\n      tag_152\n      jump\t// in\n    tag_217:\n        /* \"#utility.yul\":3788:3838   */\n      swap1\n      pop\n        /* \"#utility.yul\":3705:3844   */\n      swap2\n      swap1\n      pop\n      jump\t// out\n        /* \"#utility.yul\":3850:4007   */\n    tag_154:\n        /* \"#utility.yul\":3950:4000   */\n      tag_219\n        /* \"#utility.yul\":3994:3999   */\n      dup2\n        /* \"#utility.yul\":3950:4000   */\n      tag_153\n      jump\t// in\n    tag_219:\n        /* \"#utility.yul\":3945:3948   */\n      dup3\n        /* \"#utility.yul\":3938:4001   */\n      mstore\n        /* \"#utility.yul\":3850:4007   */\n      pop\n      pop\n      jump\t// out\n        /* \"#utility.yul\":4013:4261   */\n    tag_46:\n        /* \"#utility.yul\":4119:4123   */\n      0x00\n        /* \"#utility.yul\":4157:4159   */\n      0x20\n        /* \"#utility.yul\":4146:4155   */\n      dup3\n        /* \"#utility.yul\":4142:4160   */\n      add\n        /* \"#utility.yul\":4134:4160   */\n      swap1\n      pop\n        /* \"#utility.yul\":4170:4254   */\n      tag_221\n        /* \"#utility.yul\":4251:4252   */\n      0x00\n        /* \"#utility.yul\":4240:4249   */\n      dup4\n        /* \"#utility.yul\":4236:4253   */\n      add\n        /* \"#utility.yul\":4227:4233   */\n      dup5\n        /* \"#utility.yul\":4170:4254   */\n      tag_154\n      jump\t// in\n    tag_221:\n        /* \"#utility.yul\":4013:4261   */\n      swap3\n      swap2\n      pop\n      pop\n      jump\t// out\n        /* \"#utility.yul\":4267:4436   */\n    tag_155:\n        /* \"#utility.yul\":4351:4362   */\n      0x00\n        /* \"#utility.yul\":4385:4391   */\n      dup3\n        /* \"#utility.yul\":4380:4383   */\n      dup3\n        /* \"#utility.yul\":4373:4392   */\n      mstore\n        /* \"#utility.yul\":4425:4429   */\n      0x20\n        /* \"#utility.yul\":4420:4423   */\n      dup3\n        /* \"#utility.yul\":4416:4430   */\n      add\n        /* \"#utility.yul\":4401:4430   */\n      swap1\n      pop\n        /* \"#utility.yul\":4267:4436   */\n      swap3\n      swap2\n      pop\n      pop\n      jump\t// out\n        /* \"#utility.yul\":4442:4612   */\n    tag_156:\n        /* \"#utility.yul\":4582:4604   */\n      0x496e76616c696420696e70757420616d6f756e74000000000000000000000000\n        /* \"#utility.yul\":4578:4579   */\n      0x00\n        /* \"#utility.yul\":4570:4576   */\n      dup3\n        /* \"#utility.yul\":4566:4580   */\n      add\n        /* \"#utility.yul\":4559:4605   */\n      mstore\n        /* \"#utility.yul\":4442:4612   */\n      pop\n      jump\t// out\n        /* \"#utility.yul\":4618:4984   */\n    tag_157:\n        /* \"#utility.yul\":4760:4763   */\n      0x00\n        /* \"#utility.yul\":4781:4848   */\n      tag_225\n        /* \"#utility.yul\":4845:4847   */\n      0x14\n        /* \"#utility.yul\":4840:4843   */\n      dup4\n        /* \"#utility.yul\":4781:4848   */\n      tag_155\n      jump\t// in\n    tag_225:\n        /* \"#utility.yul\":4774:4848   */\n      swap2\n      pop\n        /* \"#utility.yul\":4857:4950   */\n      tag_226\n        /* \"#utility.yul\":4946:4949   */\n      dup3\n        /* \"#utility.yul\":4857:4950   */\n      tag_156\n      jump\t// in\n    tag_226:\n        /* \"#utility.yul\":4975:4977   */\n      0x20\n        /* \"#utility.yul\":4970:4973   */\n      dup3\n        /* \"#utility.yul\":4966:4978   */\n      add\n        /* \"#utility.yul\":4959:4978   */\n      swap1\n      pop\n        /* \"#utility.yul\":4618:4984   */\n      swap2\n      swap1\n      pop\n      jump\t// out\n        /* \"#utility.yul\":4990:5409   */\n    tag_50:\n        /* \"#utility.yul\":5156:5160   */\n      0x00\n        /* \"#utility.yul\":5194:5196   */\n      0x20\n        /* \"#utility.yul\":5183:5192   */\n      dup3\n        /* \"#utility.yul\":5179:5197   */\n      add\n        /* \"#utility.yul\":5171:5197   */\n      swap1\n      pop\n        /* \"#utility.yul\":5243:5252   */\n      dup2\n        /* \"#utility.yul\":5237:5241   */\n      dup2\n        /* \"#utility.yul\":5233:5253   */\n      sub\n        /* \"#utility.yul\":5229:5230   */\n      0x00\n        /* \"#utility.yul\":5218:5227   */\n      dup4\n        /* \"#utility.yul\":5214:5231   */\n      add\n        /* \"#utility.yul\":5207:5254   */\n      mstore\n        /* \"#utility.yul\":5271:5402   */\n      tag_228\n        /* \"#utility.yul\":5397:5401   */\n      dup2\n        /* \"#utility.yul\":5271:5402   */\n      tag_157\n      jump\t// in\n    tag_228:\n        /* \"#utility.yul\":5263:5402   */\n      swap1\n      pop\n        /* \"#utility.yul\":4990:5409   */\n      swap2\n      swap1\n      pop\n      jump\t// out\n        /* \"#utility.yul\":5415:5587   */\n    tag_158:\n        /* \"#utility.yul\":5555:5579   */\n      0x496e73756666696369656e74206c697175696469747900000000000000000000\n        /* \"#utility.yul\":5551:5552   */\n      0x00\n        /* \"#utility.yul\":5543:5549   */\n      dup3\n        /* \"#utility.yul\":5539:5553   */\n      add\n        /* \"#utility.yul\":5532:5580   */\n      mstore\n        /* \"#utility.yul\":5415:5587   */\n      pop\n      jump\t// out\n        /* \"#utility.yul\":5593:5959   */\n    tag_159:\n        /* \"#utility.yul\":5735:5738   */\n      0x00\n        /* \"#utility.yul\":5756:5823   */\n      tag_231\n        /* \"#utility.yul\":5820:5822   */\n      0x16\n        /* \"#utility.yul\":5815:5818   */\n      dup4\n        /* \"#utility.yul\":5756:5823   */\n      tag_155\n      jump\t// in\n    tag_231:\n        /* \"#utility.yul\":5749:5823   */\n      swap2\n      pop\n        /* \"#utility.yul\":5832:5925   */\n      tag_232\n        /* \"#utility.yul\":5921:5924   */\n      dup3\n        /* \"#utility.yul\":5832:5925   */\n      tag_158\n      jump\t// in\n    tag_232:\n        /* \"#utility.yul\":5950:5952   */\n      0x20\n        /* \"#utility.yul\":5945:5948   */\n      dup3\n        /* \"#utility.yul\":5941:5953   */\n      add\n        /* \"#utility.yul\":5934:5953   */\n      swap1\n      pop\n        /* \"#utility.yul\":5593:5959   */\n      swap2\n      swap1\n      pop\n      jump\t// out\n        /* \"#utility.yul\":5965:6384   */\n    tag_54:\n        /* \"#utility.yul\":6131:6135   */\n      0x00\n        /* \"#utility.yul\":6169:6171   */\n      0x20\n        /* \"#utility.yul\":6158:6167   */\n      dup3\n        /* \"#utility.yul\":6154:6172   */\n      add\n        /* \"#utility.yul\":6146:6172   */\n      swap1\n      pop\n        /* \"#utility.yul\":6218:6227   */\n      dup2\n        /* \"#utility.yul\":6212:6216   */\n      dup2\n        /* \"#utility.yul\":6208:6228   */\n      sub\n        /* \"#utility.yul\":6204:6205   */\n      0x00\n        /* \"#utility.yul\":6193:6202   */\n      dup4\n        /* \"#utility.yul\":6189:6206   */\n      add\n        /* \"#utility.yul\":6182:6229   */\n      mstore\n        /* \"#utility.yul\":6246:6377   */\n      tag_234\n        /* \"#utility.yul\":6372:6376   */\n      dup2\n        /* \"#utility.yul\":6246:6377   */\n      tag_159\n      jump\t// in\n    tag_234:\n        /* \"#utility.yul\":6238:6377   */\n      swap1\n      pop\n        /* \"#utility.yul\":5965:6384   */\n      swap2\n      swap1\n      pop\n      jump\t// out\n        /* \"#utility.yul\":6390:6570   */\n    tag_160:\n        /* \"#utility.yul\":6438:6515   */\n      0x4e487b7100000000000000000000000000000000000000000000000000000000\n        /* \"#utility.yul\":6435:6436   */\n      0x00\n        /* \"#utility.yul\":6428:6516   */\n      mstore\n        /* \"#utility.yul\":6535:6539   */\n      0x11\n        /* \"#utility.yul\":6532:6533   */\n      0x04\n        /* \"#utility.yul\":6525:6540   */\n      mstore\n        /* \"#utility.yul\":6559:6563   */\n      0x24\n        /* \"#utility.yul\":6556:6557   */\n      0x00\n        /* \"#utility.yul\":6549:6564   */\n      revert\n        /* \"#utility.yul\":6576:6986   */\n    tag_56:\n        /* \"#utility.yul\":6616:6623   */\n      0x00\n        /* \"#utility.yul\":6639:6659   */\n      tag_237\n        /* \"#utility.yul\":6657:6658   */\n      dup3\n        /* \"#utility.yul\":6639:6659   */\n      tag_142\n      jump\t// in\n    tag_237:\n        /* \"#utility.yul\":6634:6659   */\n      swap2\n      pop\n        /* \"#utility.yul\":6673:6693   */\n      tag_238\n        /* \"#utility.yul\":6691:6692   */\n      dup4\n        /* \"#utility.yul\":6673:6693   */\n      tag_142\n      jump\t// in\n    tag_238:\n        /* \"#utility.yul\":6668:6693   */\n      swap3\n      pop\n        /* \"#utility.yul\":6728:6729   */\n      dup3\n        /* \"#utility.yul\":6725:6726   */\n      dup3\n        /* \"#utility.yul\":6721:6730   */\n      mul\n        /* \"#utility.yul\":6750:6780   */\n      tag_239\n        /* \"#utility.yul\":6768:6779   */\n      dup2\n        /* \"#utility.yul\":6750:6780   */\n      tag_142\n      jump\t// in\n    tag_239:\n        /* \"#utility.yul\":6739:6780   */\n      swap2\n      pop\n        /* \"#utility.yul\":6929:6930   */\n      dup3\n        /* \"#utility.yul\":6920:6927   */\n      dup3\n        /* \"#utility.yul\":6916:6931   */\n      div\n        /* \"#utility.yul\":6913:6914   */\n      dup5\n        /* \"#utility.yul\":6910:6932   */\n      eq\n        /* \"#utility.yul\":6890:6891   */\n      dup4\n        /* \"#utility.yul\":6883:6892   */\n      iszero\n        /* \"#utility.yul\":6863:6946   */\n      or\n        /* \"#utility.yul\":6840:6979   */\n      tag_240\n      jumpi\n        /* \"#utility.yul\":6959:6977   */\n      tag_241\n      tag_160\n      jump\t// in\n    tag_241:\n        /* \"#utility.yul\":6840:6979   */\n    tag_240:\n        /* \"#utility.yul\":6624:6986   */\n      pop\n        /* \"#utility.yul\":6576:6986   */\n      swap3\n      swap2\n      pop\n      pop\n      jump\t// out\n        /* \"#utility.yul\":6992:7183   */\n    tag_60:\n        /* \"#utility.yul\":7032:7035   */\n      0x00\n        /* \"#utility.yul\":7051:7071   */\n      tag_243\n        /* \"#utility.yul\":7069:7070   */\n      dup3\n        /* \"#utility.yul\":7051:7071   */\n      tag_142\n      jump\t// in\n    tag_243:\n        /* \"#utility.yul\":7046:7071   */\n      swap2\n      pop\n        /* \"#utility.yul\":7085:7105   */\n      tag_244\n        /* \"#utility.yul\":7103:7104   */\n      dup4\n        /* \"#utility.yul\":7085:7105   */\n      tag_142\n      jump\t// in\n    tag_244:\n        /* \"#utility.yul\":7080:7105   */\n      swap3\n      pop\n        /* \"#utility.yul\":7128:7129   */\n      dup3\n        /* \"#utility.yul\":7125:7126   */\n      dup3\n        /* \"#utility.yul\":7121:7130   */\n      add\n        /* \"#utility.yul\":7114:7130   */\n      swap1\n      pop\n        /* \"#utility.yul\":7149:7152   */\n      dup1\n        /* \"#utility.yul\":7146:7147   */\n      dup3\n        /* \"#utility.yul\":7143:7153   */\n      gt\n        /* \"#utility.yul\":7140:7176   */\n      iszero\n      tag_245\n      jumpi\n        /* \"#utility.yul\":7156:7174   */\n      tag_246\n      tag_160\n      jump\t// in\n    tag_246:\n        /* \"#utility.yul\":7140:7176   */\n    tag_245:\n        /* \"#utility.yul\":6992:7183   */\n      swap3\n      swap2\n      pop\n      pop\n      jump\t// out\n        /* \"#utility.yul\":7189:7369   */\n    tag_161:\n        /* \"#utility.yul\":7237:7314   */\n      0x4e487b7100000000000000000000000000000000000000000000000000000000\n        /* \"#utility.yul\":7234:7235   */\n      0x00\n        /* \"#utility.yul\":7227:7315   */\n      mstore\n        /* \"#utility.yul\":7334:7338   */\n      0x12\n        /* \"#utility.yul\":7331:7332   */\n      0x04\n        /* \"#utility.yul\":7324:7339   */\n      mstore\n        /* \"#utility.yul\":7358:7362   */\n      0x24\n        /* \"#utility.yul\":7355:7356   */\n      0x00\n        /* \"#utility.yul\":7348:7363   */\n      revert\n        /* \"#utility.yul\":7375:7560   */\n    tag_62:\n        /* \"#utility.yul\":7415:7416   */\n      0x00\n        /* \"#utility.yul\":7432:7452   */\n      tag_249\n        /* \"#utility.yul\":7450:7451   */\n      dup3\n        /* \"#utility.yul\":7432:7452   */\n      tag_142\n      jump\t// in\n    tag_249:\n        /* \"#utility.yul\":7427:7452   */\n      swap2\n      pop\n        /* \"#utility.yul\":7466:7486   */\n      tag_250\n        /* \"#utility.yul\":7484:7485   */\n      dup4\n        /* \"#utility.yul\":7466:7486   */\n      tag_142\n      jump\t// in\n    tag_250:\n        /* \"#utility.yul\":7461:7486   */\n      swap3\n      pop\n        /* \"#utility.yul\":7505:7506   */\n      dup3\n        /* \"#utility.yul\":7495:7530   */\n      tag_251\n      jumpi\n        /* \"#utility.yul\":7510:7528   */\n      tag_252\n      tag_161\n      jump\t// in\n    tag_252:\n        /* \"#utility.yul\":7495:7530   */\n    tag_251:\n        /* \"#utility.yul\":7552:7553   */\n      dup3\n        /* \"#utility.yul\":7549:7550   */\n      dup3\n        /* \"#utility.yul\":7545:7554   */\n      div\n        /* \"#utility.yul\":7540:7554   */\n      swap1\n      pop\n        /* \"#utility.yul\":7375:7560   */\n      swap3\n      swap2\n      pop\n      pop\n      jump\t// out\n        /* \"#utility.yul\":7566:7662   */\n    tag_162:\n        /* \"#utility.yul\":7603:7610   */\n      0x00\n        /* \"#utility.yul\":7632:7656   */\n      tag_254\n        /* \"#utility.yul\":7650:7655   */\n      dup3\n        /* \"#utility.yul\":7632:7656   */\n      tag_146\n      jump\t// in\n    tag_254:\n        /* \"#utility.yul\":7621:7656   */\n      swap1\n      pop\n        /* \"#utility.yul\":7566:7662   */\n      swap2\n      swap1\n      pop\n      jump\t// out\n        /* \"#utility.yul\":7668:7786   */\n    tag_163:\n        /* \"#utility.yul\":7755:7779   */\n      tag_256\n        /* \"#utility.yul\":7773:7778   */\n      dup2\n        /* \"#utility.yul\":7755:7779   */\n      tag_162\n      jump\t// in\n    tag_256:\n        /* \"#utility.yul\":7750:7753   */\n      dup3\n        /* \"#utility.yul\":7743:7780   */\n      mstore\n        /* \"#utility.yul\":7668:7786   */\n      pop\n      pop\n      jump\t// out\n        /* \"#utility.yul\":7792:8234   */\n    tag_65:\n        /* \"#utility.yul\":7941:7945   */\n      0x00\n        /* \"#utility.yul\":7979:7981   */\n      0x60\n        /* \"#utility.yul\":7968:7977   */\n      dup3\n        /* \"#utility.yul\":7964:7982   */\n      add\n        /* \"#utility.yul\":7956:7982   */\n      swap1\n      pop\n        /* \"#utility.yul\":7992:8063   */\n      tag_258\n        /* \"#utility.yul\":8060:8061   */\n      0x00\n        /* \"#utility.yul\":8049:8058   */\n      dup4\n        /* \"#utility.yul\":8045:8062   */\n      add\n        /* \"#utility.yul\":8036:8042   */\n      dup7\n        /* \"#utility.yul\":7992:8063   */\n      tag_163\n      jump\t// in\n    tag_258:\n        /* \"#utility.yul\":8073:8145   */\n      tag_259\n        /* \"#utility.yul\":8141:8143   */\n      0x20\n        /* \"#utility.yul\":8130:8139   */\n      dup4\n        /* \"#utility.yul\":8126:8144   */\n      add\n        /* \"#utility.yul\":8117:8123   */\n      dup6\n        /* \"#utility.yul\":8073:8145   */\n      tag_163\n      jump\t// in\n    tag_259:\n        /* \"#utility.yul\":8155:8227   */\n      tag_260\n        /* \"#utility.yul\":8223:8225   */\n      0x40\n        /* \"#utility.yul\":8212:8221   */\n      dup4\n        /* \"#utility.yul\":8208:8226   */\n      add\n        /* \"#utility.yul\":8199:8205   */\n      dup5\n        /* \"#utility.yul\":8155:8227   */\n      tag_145\n      jump\t// in\n    tag_260:\n        /* \"#utility.yul\":7792:8234   */\n      swap5\n      swap4\n      pop\n      pop\n      pop\n      pop\n      jump\t// out\n        /* \"#utility.yul\":8240:8330   */\n    tag_164:\n        /* \"#utility.yul\":8274:8281   */\n      0x00\n        /* \"#utility.yul\":8317:8322   */\n      dup2\n        /* \"#utility.yul\":8310:8323   */\n      iszero\n        /* \"#utility.yul\":8303:8324   */\n      iszero\n        /* \"#utility.yul\":8292:8324   */\n      swap1\n      pop\n        /* \"#utility.yul\":8240:8330   */\n      swap2\n      swap1\n      pop\n      jump\t// out\n        /* \"#utility.yul\":8336:8452   */\n    tag_165:\n        /* \"#utility.yul\":8406:8427   */\n      tag_263\n        /* \"#utility.yul\":8421:8426   */\n      dup2\n        /* \"#utility.yul\":8406:8427   */\n      tag_164\n      jump\t// in\n    tag_263:\n        /* \"#utility.yul\":8399:8404   */\n      dup2\n        /* \"#utility.yul\":8396:8428   */\n      eq\n        /* \"#utility.yul\":8386:8446   */\n      tag_264\n      jumpi\n        /* \"#utility.yul\":8442:8443   */\n      0x00\n        /* \"#utility.yul\":8439:8440   */\n      dup1\n        /* \"#utility.yul\":8432:8444   */\n      revert\n        /* \"#utility.yul\":8386:8446   */\n    tag_264:\n        /* \"#utility.yul\":8336:8452   */\n      pop\n      jump\t// out\n        /* \"#utility.yul\":8458:8595   */\n    tag_166:\n        /* \"#utility.yul\":8512:8517   */\n      0x00\n        /* \"#utility.yul\":8543:8549   */\n      dup2\n        /* \"#utility.yul\":8537:8550   */\n      mload\n        /* \"#utility.yul\":8528:8550   */\n      swap1\n      pop\n        /* \"#utility.yul\":8559:8589   */\n      tag_266\n        /* \"#utility.yul\":8583:8588   */\n      dup2\n        /* \"#utility.yul\":8559:8589   */\n      tag_165\n      jump\t// in\n    tag_266:\n        /* \"#utility.yul\":8458:8595   */\n      swap3\n      swap2\n      pop\n      pop\n      jump\t// out\n        /* \"#utility.yul\":8601:8946   */\n    tag_69:\n        /* \"#utility.yul\":8668:8674   */\n      0x00\n        /* \"#utility.yul\":8717:8719   */\n      0x20\n        /* \"#utility.yul\":8705:8714   */\n      dup3\n        /* \"#utility.yul\":8696:8703   */\n      dup5\n        /* \"#utility.yul\":8692:8715   */\n      sub\n        /* \"#utility.yul\":8688:8720   */\n      slt\n        /* \"#utility.yul\":8685:8804   */\n      iszero\n      tag_268\n      jumpi\n        /* \"#utility.yul\":8723:8802   */\n      tag_269\n      tag_140\n      jump\t// in\n    tag_269:\n        /* \"#utility.yul\":8685:8804   */\n    tag_268:\n        /* \"#utility.yul\":8843:8844   */\n      0x00\n        /* \"#utility.yul\":8868:8929   */\n      tag_270\n        /* \"#utility.yul\":8921:8928   */\n      dup5\n        /* \"#utility.yul\":8912:8918   */\n      dup3\n        /* \"#utility.yul\":8901:8910   */\n      dup6\n        /* \"#utility.yul\":8897:8919   */\n      add\n        /* \"#utility.yul\":8868:8929   */\n      tag_166\n      jump\t// in\n    tag_270:\n        /* \"#utility.yul\":8858:8929   */\n      swap2\n      pop\n        /* \"#utility.yul\":8814:8939   */\n      pop\n        /* \"#utility.yul\":8601:8946   */\n      swap3\n      swap2\n      pop\n      pop\n      jump\t// out\n        /* \"#utility.yul\":8952:9117   */\n    tag_167:\n        /* \"#utility.yul\":9092:9109   */\n      0x5472616e73666572206661696c65640000000000000000000000000000000000\n        /* \"#utility.yul\":9088:9089   */\n      0x00\n        /* \"#utility.yul\":9080:9086   */\n      dup3\n        /* \"#utility.yul\":9076:9090   */\n      add\n        /* \"#utility.yul\":9069:9110   */\n      mstore\n        /* \"#utility.yul\":8952:9117   */\n      pop\n      jump\t// out\n        /* \"#utility.yul\":9123:9489   */\n    tag_168:\n        /* \"#utility.yul\":9265:9268   */\n      0x00\n        /* \"#utility.yul\":9286:9353   */\n      tag_273\n        /* \"#utility.yul\":9350:9352   */\n      0x0f\n        /* \"#utility.yul\":9345:9348   */\n      dup4\n        /* \"#utility.yul\":9286:9353   */\n      tag_155\n      jump\t// in\n    tag_273:\n        /* \"#utility.yul\":9279:9353   */\n      swap2\n      pop\n        /* \"#utility.yul\":9362:9455   */\n      tag_274\n        /* \"#utility.yul\":9451:9454   */\n      dup3\n        /* \"#utility.yul\":9362:9455   */\n      tag_167\n      jump\t// in\n    tag_274:\n        /* \"#utility.yul\":9480:9482   */\n      0x20\n        /* \"#utility.yul\":9475:9478   */\n      dup3\n        /* \"#utility.yul\":9471:9483   */\n      add\n        /* \"#utility.yul\":9464:9483   */\n      swap1\n      pop\n        /* \"#utility.yul\":9123:9489   */\n      swap2\n      swap1\n      pop\n      jump\t// out\n        /* \"#utility.yul\":9495:9914   */\n    tag_72:\n        /* \"#utility.yul\":9661:9665   */\n      0x00\n        /* \"#utility.yul\":9699:9701   */\n      0x20\n        /* \"#utility.yul\":9688:9697   */\n      dup3\n        /* \"#utility.yul\":9684:9702   */\n      add\n        /* \"#utility.yul\":9676:9702   */\n      swap1\n      pop\n        /* \"#utility.yul\":9748:9757   */\n      dup2\n        /* \"#utility.yul\":9742:9746   */\n      dup2\n        /* \"#utility.yul\":9738:9758   */\n      sub\n        /* \"#utility.yul\":9734:9735   */\n      0x00\n        /* \"#utility.yul\":9723:9732   */\n      dup4\n        /* \"#utility.yul\":9719:9736   */\n      add\n        /* \"#utility.yul\":9712:9759   */\n      mstore\n        /* \"#utility.yul\":9776:9907   */\n      tag_276\n        /* \"#utility.yul\":9902:9906   */\n      dup2\n        /* \"#utility.yul\":9776:9907   */\n      tag_168\n      jump\t// in\n    tag_276:\n        /* \"#utility.yul\":9768:9907   */\n      swap1\n      pop\n        /* \"#utility.yul\":9495:9914   */\n      swap2\n      swap1\n      pop\n      jump\t// out\n        /* \"#utility.yul\":9920:10114   */\n    tag_76:\n        /* \"#utility.yul\":9960:9964   */\n      0x00\n        /* \"#utility.yul\":9980:10000   */\n      tag_278\n        /* \"#utility.yul\":9998:9999   */\n      dup3\n        /* \"#utility.yul\":9980:10000   */\n      tag_142\n      jump\t// in\n    tag_278:\n        /* \"#utility.yul\":9975:10000   */\n      swap2\n      pop\n        /* \"#utility.yul\":10014:10034   */\n      tag_279\n        /* \"#utility.yul\":10032:10033   */\n      dup4\n        /* \"#utility.yul\":10014:10034   */\n      tag_142\n      jump\t// in\n    tag_279:\n        /* \"#utility.yul\":10009:10034   */\n      swap3\n      pop\n        /* \"#utility.yul\":10058:10059   */\n      dup3\n        /* \"#utility.yul\":10055:10056   */\n      dup3\n        /* \"#utility.yul\":10051:10060   */\n      sub\n        /* \"#utility.yul\":10043:10060   */\n      swap1\n      pop\n        /* \"#utility.yul\":10082:10083   */\n      dup2\n        /* \"#utility.yul\":10076:10080   */\n      dup2\n        /* \"#utility.yul\":10073:10084   */\n      gt\n        /* \"#utility.yul\":10070:10107   */\n      iszero\n      tag_280\n      jumpi\n        /* \"#utility.yul\":10087:10105   */\n      tag_281\n      tag_160\n      jump\t// in\n    tag_281:\n        /* \"#utility.yul\":10070:10107   */\n    tag_280:\n        /* \"#utility.yul\":9920:10114   */\n      swap3\n      swap2\n      pop\n      pop\n      jump\t// out\n        /* \"#utility.yul\":10120:10452   */\n    tag_78:\n        /* \"#utility.yul\":10241:10245   */\n      0x00\n        /* \"#utility.yul\":10279:10281   */\n      0x40\n        /* \"#utility.yul\":10268:10277   */\n      dup3\n        /* \"#utility.yul\":10264:10282   */\n      add\n        /* \"#utility.yul\":10256:10282   */\n      swap1\n      pop\n        /* \"#utility.yul\":10292:10363   */\n      tag_283\n        /* \"#utility.yul\":10360:10361   */\n      0x00\n        /* \"#utility.yul\":10349:10358   */\n      dup4\n        /* \"#utility.yul\":10345:10362   */\n      add\n        /* \"#utility.yul\":10336:10342   */\n      dup6\n        /* \"#utility.yul\":10292:10363   */\n      tag_163\n      jump\t// in\n    tag_283:\n        /* \"#utility.yul\":10373:10445   */\n      tag_284\n        /* \"#utility.yul\":10441:10443   */\n      0x20\n        /* \"#utility.yul\":10430:10439   */\n      dup4\n        /* \"#utility.yul\":10426:10444   */\n      add\n        /* \"#utility.yul\":10417:10423   */\n      dup5\n        /* \"#utility.yul\":10373:10445   */\n      tag_145\n      jump\t// in\n    tag_284:\n        /* \"#utility.yul\":10120:10452   */\n      swap4\n      swap3\n      pop\n      pop\n      pop\n      jump\t// out\n        /* \"#utility.yul\":10458:10790   */\n    tag_85:\n        /* \"#utility.yul\":10579:10583   */\n      0x00\n        /* \"#utility.yul\":10617:10619   */\n      0x40\n        /* \"#utility.yul\":10606:10615   */\n      dup3\n        /* \"#utility.yul\":10602:10620   */\n      add\n        /* \"#utility.yul\":10594:10620   */\n      swap1\n      pop\n        /* \"#utility.yul\":10630:10701   */\n      tag_286\n        /* \"#utility.yul\":10698:10699   */\n      0x00\n        /* \"#utility.yul\":10687:10696   */\n      dup4\n        /* \"#utility.yul\":10683:10700   */\n      add\n        /* \"#utility.yul\":10674:10680   */\n      dup6\n        /* \"#utility.yul\":10630:10701   */\n      tag_145\n      jump\t// in\n    tag_286:\n        /* \"#utility.yul\":10711:10783   */\n      tag_287\n        /* \"#utility.yul\":10779:10781   */\n      0x20\n        /* \"#utility.yul\":10768:10777   */\n      dup4\n        /* \"#utility.yul\":10764:10782   */\n      add\n        /* \"#utility.yul\":10755:10761   */\n      dup5\n        /* \"#utility.yul\":10711:10783   */\n      tag_145\n      jump\t// in\n    tag_287:\n        /* \"#utility.yul\":10458:10790   */\n      swap4\n      swap3\n      pop\n      pop\n      pop\n      jump\t// out\n        /* \"#utility.yul\":10796:10967   */\n    tag_169:\n        /* \"#utility.yul\":10936:10959   */\n      0x496e73756666696369656e742072657365727665730000000000000000000000\n        /* \"#utility.yul\":10932:10933   */\n      0x00\n        /* \"#utility.yul\":10924:10930   */\n      dup3\n        /* \"#utility.yul\":10920:10934   */\n      add\n        /* \"#utility.yul\":10913:10960   */\n      mstore\n        /* \"#utility.yul\":10796:10967   */\n      pop\n      jump\t// out\n        /* \"#utility.yul\":10973:11339   */\n    tag_170:\n        /* \"#utility.yul\":11115:11118   */\n      0x00\n        /* \"#utility.yul\":11136:11203   */\n      tag_290\n        /* \"#utility.yul\":11200:11202   */\n      0x15\n        /* \"#utility.yul\":11195:11198   */\n      dup4\n        /* \"#utility.yul\":11136:11203   */\n      tag_155\n      jump\t// in\n    tag_290:\n        /* \"#utility.yul\":11129:11203   */\n      swap2\n      pop\n        /* \"#utility.yul\":11212:11305   */\n      tag_291\n        /* \"#utility.yul\":11301:11304   */\n      dup3\n        /* \"#utility.yul\":11212:11305   */\n      tag_169\n      jump\t// in\n    tag_291:\n        /* \"#utility.yul\":11330:11332   */\n      0x20\n        /* \"#utility.yul\":11325:11328   */\n      dup3\n        /* \"#utility.yul\":11321:11333   */\n      add\n        /* \"#utility.yul\":11314:11333   */\n      swap1\n      pop\n        /* \"#utility.yul\":10973:11339   */\n      swap2\n      swap1\n      pop\n      jump\t// out\n        /* \"#utility.yul\":11345:11764   */\n    tag_106:\n        /* \"#utility.yul\":11511:11515   */\n      0x00\n        /* \"#utility.yul\":11549:11551   */\n      0x20\n        /* \"#utility.yul\":11538:11547   */\n      dup3\n        /* \"#utility.yul\":11534:11552   */\n      add\n        /* \"#utility.yul\":11526:11552   */\n      swap1\n      pop\n        /* \"#utility.yul\":11598:11607   */\n      dup2\n        /* \"#utility.yul\":11592:11596   */\n      dup2\n        /* \"#utility.yul\":11588:11608   */\n      sub\n        /* \"#utility.yul\":11584:11585   */\n      0x00\n        /* \"#utility.yul\":11573:11582   */\n      dup4\n        /* \"#utility.yul\":11569:11586   */\n      add\n        /* \"#utility.yul\":11562:11609   */\n      mstore\n        /* \"#utility.yul\":11626:11757   */\n      tag_293\n        /* \"#utility.yul\":11752:11756   */\n      dup2\n        /* \"#utility.yul\":11626:11757   */\n      tag_170\n      jump\t// in\n    tag_293:\n        /* \"#utility.yul\":11618:11757   */\n      swap1\n      pop\n        /* \"#utility.yul\":11345:11764   */\n      swap2\n      swap1\n      pop\n      jump\t// out\n\n    auxdata: 0xa264697066735822122046fe5715d508e00fc5938313807a99aa5e8ad27b1af3afd729d867f5e6b47ea764736f6c634300081a0033\n}\n",
				"bytecode": {
					"linkReferences": {},
					"object": "608060405234801561000f575f80fd5b5060405161141038038061141083398181016040528101906100319190610172565b815f806101000a81548173ffffffffffffffffffffffffffffffffffffffff021916908373ffffffffffffffffffffffffffffffffffffffff1602179055508060015f6101000a81548173ffffffffffffffffffffffffffffffffffffffff021916908373ffffffffffffffffffffffffffffffffffffffff16021790555050506101b0565b5f80fd5b5f73ffffffffffffffffffffffffffffffffffffffff82169050919050565b5f6100e4826100bb565b9050919050565b5f6100f5826100da565b9050919050565b610105816100eb565b811461010f575f80fd5b50565b5f81519050610120816100fc565b92915050565b5f610130826100bb565b9050919050565b5f61014182610126565b9050919050565b61015181610137565b811461015b575f80fd5b50565b5f8151905061016c81610148565b92915050565b5f8060408385031215610188576101876100b7565b5b5f61019585828601610112565b92505060206101a68582860161015e565b9150509250929050565b611253806101bd5f395ff3fe608060405234801561000f575f80fd5b5060043610610091575f3560e01c80639cd441da116100645780639cd441da1461011d5780639d7de6b314610139578063caffdf4414610155578063f4325d6714610171578063fc0c546a1461018f57610091565b8063054d50d41461009557806315d3eadd146100c55780631b9a1754146100e15780633fc8cef3146100ff575b5f80fd5b6100af60048036038101906100aa9190610c7b565b6101ad565b6040516100bc9190610cda565b60405180910390f35b6100df60048036038101906100da9190610cf3565b610291565b005b6100e96104dd565b6040516100f69190610cda565b60405180910390f35b6101076104e3565b6040516101149190610d98565b60405180910390f35b61013760048036038101906101329190610db1565b610508565b005b610153600480360381019061014e9190610db1565b610744565b005b61016f600480360381019061016a9190610cf3565b6109cf565b005b610179610c1b565b6040516101869190610cda565b60405180910390f35b610197610c21565b6040516101a49190610e20565b60405180910390f35b5f8084116101f0576040517f08c379a00000000000000000000000000000000000000000000000000000000081526004016101e790610e93565b60405180910390fd5b5f831180156101fe57505f82115b61023d576040517f08c379a000000000000000000000000000000000000000000000000000000000815260040161023490610efb565b60405180910390fd5b5f6103e58561024c9190610f46565b90505f838261025b9190610f46565b90505f826103e88761026d9190610f46565b6102779190610f87565b905080826102859190610fe7565b93505050509392505050565b60015f9054906101000a900473ffffffffffffffffffffffffffffffffffffffff1673ffffffffffffffffffffffffffffffffffffffff166323b872dd3330846040518463ffffffff1660e01b81526004016102ef93929190611037565b6020604051808303815f875af115801561030b573d5f803e3d5ffd5b505050506040513d601f19601f8201168201806040525081019061032f91906110a1565b61036e576040517f08c379a000000000000000000000000000000000000000000000000000000000815260040161036590611116565b60405180910390fd5b5f61037e826003546002546101ad565b90508160035f8282546103919190610f87565b925050819055508060025f8282546103a99190611134565b925050819055505f8054906101000a900473ffffffffffffffffffffffffffffffffffffffff1673ffffffffffffffffffffffffffffffffffffffff1663a9059cbb33836040518363ffffffff1660e01b815260040161040a929190611167565b6020604051808303815f875af1158015610426573d5f803e3d5ffd5b505050506040513d601f19601f8201168201806040525081019061044a91906110a1565b610489576040517f08c379a000000000000000000000000000000000000000000000000000000000815260040161048090611116565b60405180910390fd5b3373ffffffffffffffffffffffffffffffffffffffff167f77f92a1b6a1a11de8ca49515ad4c1fad45632dd3442167d74b90b304a3c7a75882846040516104d192919061118e565b60405180910390a25050565b60035481565b60015f9054906101000a900473ffffffffffffffffffffffffffffffffffffffff1681565b5f8054906101000a900473ffffffffffffffffffffffffffffffffffffffff1673ffffffffffffffffffffffffffffffffffffffff166323b872dd3330856040518463ffffffff1660e01b815260040161056493929190611037565b6020604051808303815f875af1158015610580573d5f803e3d5ffd5b505050506040513d601f19601f820116820180604052508101906105a491906110a1565b6105e3576040517f08c379a00000000000000000000000000000000000000000000000000000000081526004016105da90611116565b60405180910390fd5b60015f9054906101000a900473ffffffffffffffffffffffffffffffffffffffff1673ffffffffffffffffffffffffffffffffffffffff166323b872dd3330846040518463ffffffff1660e01b815260040161064193929190611037565b6020604051808303815f875af115801561065d573d5f803e3d5ffd5b505050506040513d601f19601f8201168201806040525081019061068191906110a1565b6106c0576040517f08c379a00000000000000000000000000000000000000000000000000000000081526004016106b790611116565b60405180910390fd5b8160025f8282546106d19190610f87565b925050819055508060035f8282546106e99190610f87565b925050819055503373ffffffffffffffffffffffffffffffffffffffff167f06239653922ac7bea6aa2b19dc486b9361821d37712eb796adfd38d81de278ca838360405161073892919061118e565b60405180910390a25050565b816002541015801561075857508060035410155b610797576040517f08c379a000000000000000000000000000000000000000000000000000000000815260040161078e906111ff565b60405180910390fd5b8160025f8282546107a89190611134565b925050819055508060035f8282546107c09190611134565b925050819055505f8054906101000a900473ffffffffffffffffffffffffffffffffffffffff1673ffffffffffffffffffffffffffffffffffffffff1663a9059cbb33846040518363ffffffff1660e01b8152600401610821929190611167565b6020604051808303815f875af115801561083d573d5f803e3d5ffd5b505050506040513d601f19601f8201168201806040525081019061086191906110a1565b6108a0576040517f08c379a000000000000000000000000000000000000000000000000000000000815260040161089790611116565b60405180910390fd5b60015f9054906101000a900473ffffffffffffffffffffffffffffffffffffffff1673ffffffffffffffffffffffffffffffffffffffff1663a9059cbb33836040518363ffffffff1660e01b81526004016108fc929190611167565b6020604051808303815f875af1158015610918573d5f803e3d5ffd5b505050506040513d601f19601f8201168201806040525081019061093c91906110a1565b61097b576040517f08c379a000000000000000000000000000000000000000000000000000000000815260040161097290611116565b60405180910390fd5b3373ffffffffffffffffffffffffffffffffffffffff167f0fbf06c058b90cb038a618f8c2acbf6145f8b3570fd1fa56abb8f0f3f05b36e883836040516109c392919061118e565b60405180910390a25050565b5f8054906101000a900473ffffffffffffffffffffffffffffffffffffffff1673ffffffffffffffffffffffffffffffffffffffff166323b872dd3330846040518463ffffffff1660e01b8152600401610a2b93929190611037565b6020604051808303815f875af1158015610a47573d5f803e3d5ffd5b505050506040513d601f19601f82011682018060405250810190610a6b91906110a1565b610aaa576040517f08c379a0000000000000000000000000000000000000000000000000000000008152600401610aa190611116565b60405180910390fd5b5f610aba826002546003546101ad565b90508160025f828254610acd9190610f87565b925050819055508060035f828254610ae59190611134565b9250508190555060015f9054906101000a900473ffffffffffffffffffffffffffffffffffffffff1673ffffffffffffffffffffffffffffffffffffffff1663a9059cbb33836040518363ffffffff1660e01b8152600401610b48929190611167565b6020604051808303815f875af1158015610b64573d5f803e3d5ffd5b505050506040513d601f19601f82011682018060405250810190610b8891906110a1565b610bc7576040517f08c379a0000000000000000000000000000000000000000000000000000000008152600401610bbe90611116565b60405180910390fd5b3373ffffffffffffffffffffffffffffffffffffffff167f77f92a1b6a1a11de8ca49515ad4c1fad45632dd3442167d74b90b304a3c7a7588383604051610c0f92919061118e565b60405180910390a25050565b60025481565b5f8054906101000a900473ffffffffffffffffffffffffffffffffffffffff1681565b5f80fd5b5f819050919050565b610c5a81610c48565b8114610c64575f80fd5b50565b5f81359050610c7581610c51565b92915050565b5f805f60608486031215610c9257610c91610c44565b5b5f610c9f86828701610c67565b9350506020610cb086828701610c67565b9250506040610cc186828701610c67565b9150509250925092565b610cd481610c48565b82525050565b5f602082019050610ced5f830184610ccb565b92915050565b5f60208284031215610d0857610d07610c44565b5b5f610d1584828501610c67565b91505092915050565b5f73ffffffffffffffffffffffffffffffffffffffff82169050919050565b5f819050919050565b5f610d60610d5b610d5684610d1e565b610d3d565b610d1e565b9050919050565b5f610d7182610d46565b9050919050565b5f610d8282610d67565b9050919050565b610d9281610d78565b82525050565b5f602082019050610dab5f830184610d89565b92915050565b5f8060408385031215610dc757610dc6610c44565b5b5f610dd485828601610c67565b9250506020610de585828601610c67565b9150509250929050565b5f610df982610d46565b9050919050565b5f610e0a82610def565b9050919050565b610e1a81610e00565b82525050565b5f602082019050610e335f830184610e11565b92915050565b5f82825260208201905092915050565b7f496e76616c696420696e70757420616d6f756e740000000000000000000000005f82015250565b5f610e7d601483610e39565b9150610e8882610e49565b602082019050919050565b5f6020820190508181035f830152610eaa81610e71565b9050919050565b7f496e73756666696369656e74206c6971756964697479000000000000000000005f82015250565b5f610ee5601683610e39565b9150610ef082610eb1565b602082019050919050565b5f6020820190508181035f830152610f1281610ed9565b9050919050565b7f4e487b71000000000000000000000000000000000000000000000000000000005f52601160045260245ffd5b5f610f5082610c48565b9150610f5b83610c48565b9250828202610f6981610c48565b91508282048414831517610f8057610f7f610f19565b5b5092915050565b5f610f9182610c48565b9150610f9c83610c48565b9250828201905080821115610fb457610fb3610f19565b5b92915050565b7f4e487b71000000000000000000000000000000000000000000000000000000005f52601260045260245ffd5b5f610ff182610c48565b9150610ffc83610c48565b92508261100c5761100b610fba565b5b828204905092915050565b5f61102182610d1e565b9050919050565b61103181611017565b82525050565b5f60608201905061104a5f830186611028565b6110576020830185611028565b6110646040830184610ccb565b949350505050565b5f8115159050919050565b6110808161106c565b811461108a575f80fd5b50565b5f8151905061109b81611077565b92915050565b5f602082840312156110b6576110b5610c44565b5b5f6110c38482850161108d565b91505092915050565b7f5472616e73666572206661696c656400000000000000000000000000000000005f82015250565b5f611100600f83610e39565b915061110b826110cc565b602082019050919050565b5f6020820190508181035f83015261112d816110f4565b9050919050565b5f61113e82610c48565b915061114983610c48565b925082820390508181111561116157611160610f19565b5b92915050565b5f60408201905061117a5f830185611028565b6111876020830184610ccb565b9392505050565b5f6040820190506111a15f830185610ccb565b6111ae6020830184610ccb565b9392505050565b7f496e73756666696369656e7420726573657276657300000000000000000000005f82015250565b5f6111e9601583610e39565b91506111f4826111b5565b602082019050919050565b5f6020820190508181035f830152611216816111dd565b905091905056fea264697066735822122046fe5715d508e00fc5938313807a99aa5e8ad27b1af3afd729d867f5e6b47ea764736f6c634300081a0033",
					"opcodes": "PUSH1 0x80 PUSH1 0x40 MSTORE CALLVALUE DUP1 ISZERO PUSH2 0xF JUMPI PUSH0 DUP1 REVERT JUMPDEST POP PUSH1 0x40 MLOAD PUSH2 0x1410 CODESIZE SUB DUP1 PUSH2 0x1410 DUP4 CODECOPY DUP2 DUP2 ADD PUSH1 0x40 MSTORE DUP2 ADD SWAP1 PUSH2 0x31 SWAP2 SWAP1 PUSH2 0x172 JUMP JUMPDEST DUP2 PUSH0 DUP1 PUSH2 0x100 EXP DUP2 SLOAD DUP2 PUSH20 0xFFFFFFFFFFFFFFFFFFFFFFFFFFFFFFFFFFFFFFFF MUL NOT AND SWAP1 DUP4 PUSH20 0xFFFFFFFFFFFFFFFFFFFFFFFFFFFFFFFFFFFFFFFF AND MUL OR SWAP1 SSTORE POP DUP1 PUSH1 0x1 PUSH0 PUSH2 0x100 EXP DUP2 SLOAD DUP2 PUSH20 0xFFFFFFFFFFFFFFFFFFFFFFFFFFFFFFFFFFFFFFFF MUL NOT AND SWAP1 DUP4 PUSH20 0xFFFFFFFFFFFFFFFFFFFFFFFFFFFFFFFFFFFFFFFF AND MUL OR SWAP1 SSTORE POP POP POP PUSH2 0x1B0 JUMP JUMPDEST PUSH0 DUP1 REVERT JUMPDEST PUSH0 PUSH20 0xFFFFFFFFFFFFFFFFFFFFFFFFFFFFFFFFFFFFFFFF DUP3 AND SWAP1 POP SWAP2 SWAP1 POP JUMP JUMPDEST PUSH0 PUSH2 0xE4 DUP3 PUSH2 0xBB JUMP JUMPDEST SWAP1 POP SWAP2 SWAP1 POP JUMP JUMPDEST PUSH0 PUSH2 0xF5 DUP3 PUSH2 0xDA JUMP JUMPDEST SWAP1 POP SWAP2 SWAP1 POP JUMP JUMPDEST PUSH2 0x105 DUP2 PUSH2 0xEB JUMP JUMPDEST DUP2 EQ PUSH2 0x10F JUMPI PUSH0 DUP1 REVERT JUMPDEST POP JUMP JUMPDEST PUSH0 DUP2 MLOAD SWAP1 POP PUSH2 0x120 DUP2 PUSH2 0xFC JUMP JUMPDEST SWAP3 SWAP2 POP POP JUMP JUMPDEST PUSH0 PUSH2 0x130 DUP3 PUSH2 0xBB JUMP JUMPDEST SWAP1 POP SWAP2 SWAP1 POP JUMP JUMPDEST PUSH0 PUSH2 0x141 DUP3 PUSH2 0x126 JUMP JUMPDEST SWAP1 POP SWAP2 SWAP1 POP JUMP JUMPDEST PUSH2 0x151 DUP2 PUSH2 0x137 JUMP JUMPDEST DUP2 EQ PUSH2 0x15B JUMPI PUSH0 DUP1 REVERT JUMPDEST POP JUMP JUMPDEST PUSH0 DUP2 MLOAD SWAP1 POP PUSH2 0x16C DUP2 PUSH2 0x148 JUMP JUMPDEST SWAP3 SWAP2 POP POP JUMP JUMPDEST PUSH0 DUP1 PUSH1 0x40 DUP4 DUP6 SUB SLT ISZERO PUSH2 0x188 JUMPI PUSH2 0x187 PUSH2 0xB7 JUMP JUMPDEST JUMPDEST PUSH0 PUSH2 0x195 DUP6 DUP3 DUP7 ADD PUSH2 0x112 JUMP JUMPDEST SWAP3 POP POP PUSH1 0x20 PUSH2 0x1A6 DUP6 DUP3 DUP7 ADD PUSH2 0x15E JUMP JUMPDEST SWAP2 POP POP SWAP3 POP SWAP3 SWAP1 POP JUMP JUMPDEST PUSH2 0x1253 DUP1 PUSH2 0x1BD PUSH0 CODECOPY PUSH0 RETURN INVALID PUSH1 0x80 PUSH1 0x40 MSTORE CALLVALUE DUP1 ISZERO PUSH2 0xF JUMPI PUSH0 DUP1 REVERT JUMPDEST POP PUSH1 0x4 CALLDATASIZE LT PUSH2 0x91 JUMPI PUSH0 CALLDATALOAD PUSH1 0xE0 SHR DUP1 PUSH4 0x9CD441DA GT PUSH2 0x64 JUMPI DUP1 PUSH4 0x9CD441DA EQ PUSH2 0x11D JUMPI DUP1 PUSH4 0x9D7DE6B3 EQ PUSH2 0x139 JUMPI DUP1 PUSH4 0xCAFFDF44 EQ PUSH2 0x155 JUMPI DUP1 PUSH4 0xF4325D67 EQ PUSH2 0x171 JUMPI DUP1 PUSH4 0xFC0C546A EQ PUSH2 0x18F JUMPI PUSH2 0x91 JUMP JUMPDEST DUP1 PUSH4 0x54D50D4 EQ PUSH2 0x95 JUMPI DUP1 PUSH4 0x15D3EADD EQ PUSH2 0xC5 JUMPI DUP1 PUSH4 0x1B9A1754 EQ PUSH2 0xE1 JUMPI DUP1 PUSH4 0x3FC8CEF3 EQ PUSH2 0xFF JUMPI JUMPDEST PUSH0 DUP1 REVERT JUMPDEST PUSH2 0xAF PUSH1 0x4 DUP1 CALLDATASIZE SUB DUP2 ADD SWAP1 PUSH2 0xAA SWAP2 SWAP1 PUSH2 0xC7B JUMP JUMPDEST PUSH2 0x1AD JUMP JUMPDEST PUSH1 0x40 MLOAD PUSH2 0xBC SWAP2 SWAP1 PUSH2 0xCDA JUMP JUMPDEST PUSH1 0x40 MLOAD DUP1 SWAP2 SUB SWAP1 RETURN JUMPDEST PUSH2 0xDF PUSH1 0x4 DUP1 CALLDATASIZE SUB DUP2 ADD SWAP1 PUSH2 0xDA SWAP2 SWAP1 PUSH2 0xCF3 JUMP JUMPDEST PUSH2 0x291 JUMP JUMPDEST STOP JUMPDEST PUSH2 0xE9 PUSH2 0x4DD JUMP JUMPDEST PUSH1 0x40 MLOAD PUSH2 0xF6 SWAP2 SWAP1 PUSH2 0xCDA JUMP JUMPDEST PUSH1 0x40 MLOAD DUP1 SWAP2 SUB SWAP1 RETURN JUMPDEST PUSH2 0x107 PUSH2 0x4E3 JUMP JUMPDEST PUSH1 0x40 MLOAD PUSH2 0x114 SWAP2 SWAP1 PUSH2 0xD98 JUMP JUMPDEST PUSH1 0x40 MLOAD DUP1 SWAP2 SUB SWAP1 RETURN JUMPDEST PUSH2 0x137 PUSH1 0x4 DUP1 CALLDATASIZE SUB DUP2 ADD SWAP1 PUSH2 0x132 SWAP2 SWAP1 PUSH2 0xDB1 JUMP JUMPDEST PUSH2 0x508 JUMP JUMPDEST STOP JUMPDEST PUSH2 0x153 PUSH1 0x4 DUP1 CALLDATASIZE SUB DUP2 ADD SWAP1 PUSH2 0x14E SWAP2 SWAP1 PUSH2 0xDB1 JUMP JUMPDEST PUSH2 0x744 JUMP JUMPDEST STOP JUMPDEST PUSH2 0x16F PUSH1 0x4 DUP1 CALLDATASIZE SUB DUP2 ADD SWAP1 PUSH2 0x16A SWAP2 SWAP1 PUSH2 0xCF3 JUMP JUMPDEST PUSH2 0x9CF JUMP JUMPDEST STOP JUMPDEST PUSH2 0x179 PUSH2 0xC1B JUMP JUMPDEST PUSH1 0x40 MLOAD PUSH2 0x186 SWAP2 SWAP1 PUSH2 0xCDA JUMP JUMPDEST PUSH1 0x40 MLOAD DUP1 SWAP2 SUB SWAP1 RETURN JUMPDEST PUSH2 0x197 PUSH2 0xC21 JUMP JUMPDEST PUSH1 0x40 MLOAD PUSH2 0x1A4 SWAP2 SWAP1 PUSH2 0xE20 JUMP JUMPDEST PUSH1 0x40 MLOAD DUP1 SWAP2 SUB SWAP1 RETURN JUMPDEST PUSH0 DUP1 DUP5 GT PUSH2 0x1F0 JUMPI PUSH1 0x40 MLOAD PUSH32 0x8C379A000000000000000000000000000000000000000000000000000000000 DUP2 MSTORE PUSH1 0x4 ADD PUSH2 0x1E7 SWAP1 PUSH2 0xE93 JUMP JUMPDEST PUSH1 0x40 MLOAD DUP1 SWAP2 SUB SWAP1 REVERT JUMPDEST PUSH0 DUP4 GT DUP1 ISZERO PUSH2 0x1FE JUMPI POP PUSH0 DUP3 GT JUMPDEST PUSH2 0x23D JUMPI PUSH1 0x40 MLOAD PUSH32 0x8C379A000000000000000000000000000000000000000000000000000000000 DUP2 MSTORE PUSH1 0x4 ADD PUSH2 0x234 SWAP1 PUSH2 0xEFB JUMP JUMPDEST PUSH1 0x40 MLOAD DUP1 SWAP2 SUB SWAP1 REVERT JUMPDEST PUSH0 PUSH2 0x3E5 DUP6 PUSH2 0x24C SWAP2 SWAP1 PUSH2 0xF46 JUMP JUMPDEST SWAP1 POP PUSH0 DUP4 DUP3 PUSH2 0x25B SWAP2 SWAP1 PUSH2 0xF46 JUMP JUMPDEST SWAP1 POP PUSH0 DUP3 PUSH2 0x3E8 DUP8 PUSH2 0x26D SWAP2 SWAP1 PUSH2 0xF46 JUMP JUMPDEST PUSH2 0x277 SWAP2 SWAP1 PUSH2 0xF87 JUMP JUMPDEST SWAP1 POP DUP1 DUP3 PUSH2 0x285 SWAP2 SWAP1 PUSH2 0xFE7 JUMP JUMPDEST SWAP4 POP POP POP POP SWAP4 SWAP3 POP POP POP JUMP JUMPDEST PUSH1 0x1 PUSH0 SWAP1 SLOAD SWAP1 PUSH2 0x100 EXP SWAP1 DIV PUSH20 0xFFFFFFFFFFFFFFFFFFFFFFFFFFFFFFFFFFFFFFFF AND PUSH20 0xFFFFFFFFFFFFFFFFFFFFFFFFFFFFFFFFFFFFFFFF AND PUSH4 0x23B872DD CALLER ADDRESS DUP5 PUSH1 0x40 MLOAD DUP5 PUSH4 0xFFFFFFFF AND PUSH1 0xE0 SHL DUP2 MSTORE PUSH1 0x4 ADD PUSH2 0x2EF SWAP4 SWAP3 SWAP2 SWAP1 PUSH2 0x1037 JUMP JUMPDEST PUSH1 0x20 PUSH1 0x40 MLOAD DUP1 DUP4 SUB DUP2 PUSH0 DUP8 GAS CALL ISZERO DUP1 ISZERO PUSH2 0x30B JUMPI RETURNDATASIZE PUSH0 DUP1 RETURNDATACOPY RETURNDATASIZE PUSH0 REVERT JUMPDEST POP POP POP POP PUSH1 0x40 MLOAD RETURNDATASIZE PUSH1 0x1F NOT PUSH1 0x1F DUP3 ADD AND DUP3 ADD DUP1 PUSH1 0x40 MSTORE POP DUP2 ADD SWAP1 PUSH2 0x32F SWAP2 SWAP1 PUSH2 0x10A1 JUMP JUMPDEST PUSH2 0x36E JUMPI PUSH1 0x40 MLOAD PUSH32 0x8C379A000000000000000000000000000000000000000000000000000000000 DUP2 MSTORE PUSH1 0x4 ADD PUSH2 0x365 SWAP1 PUSH2 0x1116 JUMP JUMPDEST PUSH1 0x40 MLOAD DUP1 SWAP2 SUB SWAP1 REVERT JUMPDEST PUSH0 PUSH2 0x37E DUP3 PUSH1 0x3 SLOAD PUSH1 0x2 SLOAD PUSH2 0x1AD JUMP JUMPDEST SWAP1 POP DUP2 PUSH1 0x3 PUSH0 DUP3 DUP3 SLOAD PUSH2 0x391 SWAP2 SWAP1 PUSH2 0xF87 JUMP JUMPDEST SWAP3 POP POP DUP2 SWAP1 SSTORE POP DUP1 PUSH1 0x2 PUSH0 DUP3 DUP3 SLOAD PUSH2 0x3A9 SWAP2 SWAP1 PUSH2 0x1134 JUMP JUMPDEST SWAP3 POP POP DUP2 SWAP1 SSTORE POP PUSH0 DUP1 SLOAD SWAP1 PUSH2 0x100 EXP SWAP1 DIV PUSH20 0xFFFFFFFFFFFFFFFFFFFFFFFFFFFFFFFFFFFFFFFF AND PUSH20 0xFFFFFFFFFFFFFFFFFFFFFFFFFFFFFFFFFFFFFFFF AND PUSH4 0xA9059CBB CALLER DUP4 PUSH1 0x40 MLOAD DUP4 PUSH4 0xFFFFFFFF AND PUSH1 0xE0 SHL DUP2 MSTORE PUSH1 0x4 ADD PUSH2 0x40A SWAP3 SWAP2 SWAP1 PUSH2 0x1167 JUMP JUMPDEST PUSH1 0x20 PUSH1 0x40 MLOAD DUP1 DUP4 SUB DUP2 PUSH0 DUP8 GAS CALL ISZERO DUP1 ISZERO PUSH2 0x426 JUMPI RETURNDATASIZE PUSH0 DUP1 RETURNDATACOPY RETURNDATASIZE PUSH0 REVERT JUMPDEST POP POP POP POP PUSH1 0x40 MLOAD RETURNDATASIZE PUSH1 0x1F NOT PUSH1 0x1F DUP3 ADD AND DUP3 ADD DUP1 PUSH1 0x40 MSTORE POP DUP2 ADD SWAP1 PUSH2 0x44A SWAP2 SWAP1 PUSH2 0x10A1 JUMP JUMPDEST PUSH2 0x489 JUMPI PUSH1 0x40 MLOAD PUSH32 0x8C379A000000000000000000000000000000000000000000000000000000000 DUP2 MSTORE PUSH1 0x4 ADD PUSH2 0x480 SWAP1 PUSH2 0x1116 JUMP JUMPDEST PUSH1 0x40 MLOAD DUP1 SWAP2 SUB SWAP1 REVERT JUMPDEST CALLER PUSH20 0xFFFFFFFFFFFFFFFFFFFFFFFFFFFFFFFFFFFFFFFF AND PUSH32 0x77F92A1B6A1A11DE8CA49515AD4C1FAD45632DD3442167D74B90B304A3C7A758 DUP3 DUP5 PUSH1 0x40 MLOAD PUSH2 0x4D1 SWAP3 SWAP2 SWAP1 PUSH2 0x118E JUMP JUMPDEST PUSH1 0x40 MLOAD DUP1 SWAP2 SUB SWAP1 LOG2 POP POP JUMP JUMPDEST PUSH1 0x3 SLOAD DUP2 JUMP JUMPDEST PUSH1 0x1 PUSH0 SWAP1 SLOAD SWAP1 PUSH2 0x100 EXP SWAP1 DIV PUSH20 0xFFFFFFFFFFFFFFFFFFFFFFFFFFFFFFFFFFFFFFFF AND DUP2 JUMP JUMPDEST PUSH0 DUP1 SLOAD SWAP1 PUSH2 0x100 EXP SWAP1 DIV PUSH20 0xFFFFFFFFFFFFFFFFFFFFFFFFFFFFFFFFFFFFFFFF AND PUSH20 0xFFFFFFFFFFFFFFFFFFFFFFFFFFFFFFFFFFFFFFFF AND PUSH4 0x23B872DD CALLER ADDRESS DUP6 PUSH1 0x40 MLOAD DUP5 PUSH4 0xFFFFFFFF AND PUSH1 0xE0 SHL DUP2 MSTORE PUSH1 0x4 ADD PUSH2 0x564 SWAP4 SWAP3 SWAP2 SWAP1 PUSH2 0x1037 JUMP JUMPDEST PUSH1 0x20 PUSH1 0x40 MLOAD DUP1 DUP4 SUB DUP2 PUSH0 DUP8 GAS CALL ISZERO DUP1 ISZERO PUSH2 0x580 JUMPI RETURNDATASIZE PUSH0 DUP1 RETURNDATACOPY RETURNDATASIZE PUSH0 REVERT JUMPDEST POP POP POP POP PUSH1 0x40 MLOAD RETURNDATASIZE PUSH1 0x1F NOT PUSH1 0x1F DUP3 ADD AND DUP3 ADD DUP1 PUSH1 0x40 MSTORE POP DUP2 ADD SWAP1 PUSH2 0x5A4 SWAP2 SWAP1 PUSH2 0x10A1 JUMP JUMPDEST PUSH2 0x5E3 JUMPI PUSH1 0x40 MLOAD PUSH32 0x8C379A000000000000000000000000000000000000000000000000000000000 DUP2 MSTORE PUSH1 0x4 ADD PUSH2 0x5DA SWAP1 PUSH2 0x1116 JUMP JUMPDEST PUSH1 0x40 MLOAD DUP1 SWAP2 SUB SWAP1 REVERT JUMPDEST PUSH1 0x1 PUSH0 SWAP1 SLOAD SWAP1 PUSH2 0x100 EXP SWAP1 DIV PUSH20 0xFFFFFFFFFFFFFFFFFFFFFFFFFFFFFFFFFFFFFFFF AND PUSH20 0xFFFFFFFFFFFFFFFFFFFFFFFFFFFFFFFFFFFFFFFF AND PUSH4 0x23B872DD CALLER ADDRESS DUP5 PUSH1 0x40 MLOAD DUP5 PUSH4 0xFFFFFFFF AND PUSH1 0xE0 SHL DUP2 MSTORE PUSH1 0x4 ADD PUSH2 0x641 SWAP4 SWAP3 SWAP2 SWAP1 PUSH2 0x1037 JUMP JUMPDEST PUSH1 0x20 PUSH1 0x40 MLOAD DUP1 DUP4 SUB DUP2 PUSH0 DUP8 GAS CALL ISZERO DUP1 ISZERO PUSH2 0x65D JUMPI RETURNDATASIZE PUSH0 DUP1 RETURNDATACOPY RETURNDATASIZE PUSH0 REVERT JUMPDEST POP POP POP POP PUSH1 0x40 MLOAD RETURNDATASIZE PUSH1 0x1F NOT PUSH1 0x1F DUP3 ADD AND DUP3 ADD DUP1 PUSH1 0x40 MSTORE POP DUP2 ADD SWAP1 PUSH2 0x681 SWAP2 SWAP1 PUSH2 0x10A1 JUMP JUMPDEST PUSH2 0x6C0 JUMPI PUSH1 0x40 MLOAD PUSH32 0x8C379A000000000000000000000000000000000000000000000000000000000 DUP2 MSTORE PUSH1 0x4 ADD PUSH2 0x6B7 SWAP1 PUSH2 0x1116 JUMP JUMPDEST PUSH1 0x40 MLOAD DUP1 SWAP2 SUB SWAP1 REVERT JUMPDEST DUP2 PUSH1 0x2 PUSH0 DUP3 DUP3 SLOAD PUSH2 0x6D1 SWAP2 SWAP1 PUSH2 0xF87 JUMP JUMPDEST SWAP3 POP POP DUP2 SWAP1 SSTORE POP DUP1 PUSH1 0x3 PUSH0 DUP3 DUP3 SLOAD PUSH2 0x6E9 SWAP2 SWAP1 PUSH2 0xF87 JUMP JUMPDEST SWAP3 POP POP DUP2 SWAP1 SSTORE POP CALLER PUSH20 0xFFFFFFFFFFFFFFFFFFFFFFFFFFFFFFFFFFFFFFFF AND PUSH32 0x6239653922AC7BEA6AA2B19DC486B9361821D37712EB796ADFD38D81DE278CA DUP4 DUP4 PUSH1 0x40 MLOAD PUSH2 0x738 SWAP3 SWAP2 SWAP1 PUSH2 0x118E JUMP JUMPDEST PUSH1 0x40 MLOAD DUP1 SWAP2 SUB SWAP1 LOG2 POP POP JUMP JUMPDEST DUP2 PUSH1 0x2 SLOAD LT ISZERO DUP1 ISZERO PUSH2 0x758 JUMPI POP DUP1 PUSH1 0x3 SLOAD LT ISZERO JUMPDEST PUSH2 0x797 JUMPI PUSH1 0x40 MLOAD PUSH32 0x8C379A000000000000000000000000000000000000000000000000000000000 DUP2 MSTORE PUSH1 0x4 ADD PUSH2 0x78E SWAP1 PUSH2 0x11FF JUMP JUMPDEST PUSH1 0x40 MLOAD DUP1 SWAP2 SUB SWAP1 REVERT JUMPDEST DUP2 PUSH1 0x2 PUSH0 DUP3 DUP3 SLOAD PUSH2 0x7A8 SWAP2 SWAP1 PUSH2 0x1134 JUMP JUMPDEST SWAP3 POP POP DUP2 SWAP1 SSTORE POP DUP1 PUSH1 0x3 PUSH0 DUP3 DUP3 SLOAD PUSH2 0x7C0 SWAP2 SWAP1 PUSH2 0x1134 JUMP JUMPDEST SWAP3 POP POP DUP2 SWAP1 SSTORE POP PUSH0 DUP1 SLOAD SWAP1 PUSH2 0x100 EXP SWAP1 DIV PUSH20 0xFFFFFFFFFFFFFFFFFFFFFFFFFFFFFFFFFFFFFFFF AND PUSH20 0xFFFFFFFFFFFFFFFFFFFFFFFFFFFFFFFFFFFFFFFF AND PUSH4 0xA9059CBB CALLER DUP5 PUSH1 0x40 MLOAD DUP4 PUSH4 0xFFFFFFFF AND PUSH1 0xE0 SHL DUP2 MSTORE PUSH1 0x4 ADD PUSH2 0x821 SWAP3 SWAP2 SWAP1 PUSH2 0x1167 JUMP JUMPDEST PUSH1 0x20 PUSH1 0x40 MLOAD DUP1 DUP4 SUB DUP2 PUSH0 DUP8 GAS CALL ISZERO DUP1 ISZERO PUSH2 0x83D JUMPI RETURNDATASIZE PUSH0 DUP1 RETURNDATACOPY RETURNDATASIZE PUSH0 REVERT JUMPDEST POP POP POP POP PUSH1 0x40 MLOAD RETURNDATASIZE PUSH1 0x1F NOT PUSH1 0x1F DUP3 ADD AND DUP3 ADD DUP1 PUSH1 0x40 MSTORE POP DUP2 ADD SWAP1 PUSH2 0x861 SWAP2 SWAP1 PUSH2 0x10A1 JUMP JUMPDEST PUSH2 0x8A0 JUMPI PUSH1 0x40 MLOAD PUSH32 0x8C379A000000000000000000000000000000000000000000000000000000000 DUP2 MSTORE PUSH1 0x4 ADD PUSH2 0x897 SWAP1 PUSH2 0x1116 JUMP JUMPDEST PUSH1 0x40 MLOAD DUP1 SWAP2 SUB SWAP1 REVERT JUMPDEST PUSH1 0x1 PUSH0 SWAP1 SLOAD SWAP1 PUSH2 0x100 EXP SWAP1 DIV PUSH20 0xFFFFFFFFFFFFFFFFFFFFFFFFFFFFFFFFFFFFFFFF AND PUSH20 0xFFFFFFFFFFFFFFFFFFFFFFFFFFFFFFFFFFFFFFFF AND PUSH4 0xA9059CBB CALLER DUP4 PUSH1 0x40 MLOAD DUP4 PUSH4 0xFFFFFFFF AND PUSH1 0xE0 SHL DUP2 MSTORE PUSH1 0x4 ADD PUSH2 0x8FC SWAP3 SWAP2 SWAP1 PUSH2 0x1167 JUMP JUMPDEST PUSH1 0x20 PUSH1 0x40 MLOAD DUP1 DUP4 SUB DUP2 PUSH0 DUP8 GAS CALL ISZERO DUP1 ISZERO PUSH2 0x918 JUMPI RETURNDATASIZE PUSH0 DUP1 RETURNDATACOPY RETURNDATASIZE PUSH0 REVERT JUMPDEST POP POP POP POP PUSH1 0x40 MLOAD RETURNDATASIZE PUSH1 0x1F NOT PUSH1 0x1F DUP3 ADD AND DUP3 ADD DUP1 PUSH1 0x40 MSTORE POP DUP2 ADD SWAP1 PUSH2 0x93C SWAP2 SWAP1 PUSH2 0x10A1 JUMP JUMPDEST PUSH2 0x97B JUMPI PUSH1 0x40 MLOAD PUSH32 0x8C379A000000000000000000000000000000000000000000000000000000000 DUP2 MSTORE PUSH1 0x4 ADD PUSH2 0x972 SWAP1 PUSH2 0x1116 JUMP JUMPDEST PUSH1 0x40 MLOAD DUP1 SWAP2 SUB SWAP1 REVERT JUMPDEST CALLER PUSH20 0xFFFFFFFFFFFFFFFFFFFFFFFFFFFFFFFFFFFFFFFF AND PUSH32 0xFBF06C058B90CB038A618F8C2ACBF6145F8B3570FD1FA56ABB8F0F3F05B36E8 DUP4 DUP4 PUSH1 0x40 MLOAD PUSH2 0x9C3 SWAP3 SWAP2 SWAP1 PUSH2 0x118E JUMP JUMPDEST PUSH1 0x40 MLOAD DUP1 SWAP2 SUB SWAP1 LOG2 POP POP JUMP JUMPDEST PUSH0 DUP1 SLOAD SWAP1 PUSH2 0x100 EXP SWAP1 DIV PUSH20 0xFFFFFFFFFFFFFFFFFFFFFFFFFFFFFFFFFFFFFFFF AND PUSH20 0xFFFFFFFFFFFFFFFFFFFFFFFFFFFFFFFFFFFFFFFF AND PUSH4 0x23B872DD CALLER ADDRESS DUP5 PUSH1 0x40 MLOAD DUP5 PUSH4 0xFFFFFFFF AND PUSH1 0xE0 SHL DUP2 MSTORE PUSH1 0x4 ADD PUSH2 0xA2B SWAP4 SWAP3 SWAP2 SWAP1 PUSH2 0x1037 JUMP JUMPDEST PUSH1 0x20 PUSH1 0x40 MLOAD DUP1 DUP4 SUB DUP2 PUSH0 DUP8 GAS CALL ISZERO DUP1 ISZERO PUSH2 0xA47 JUMPI RETURNDATASIZE PUSH0 DUP1 RETURNDATACOPY RETURNDATASIZE PUSH0 REVERT JUMPDEST POP POP POP POP PUSH1 0x40 MLOAD RETURNDATASIZE PUSH1 0x1F NOT PUSH1 0x1F DUP3 ADD AND DUP3 ADD DUP1 PUSH1 0x40 MSTORE POP DUP2 ADD SWAP1 PUSH2 0xA6B SWAP2 SWAP1 PUSH2 0x10A1 JUMP JUMPDEST PUSH2 0xAAA JUMPI PUSH1 0x40 MLOAD PUSH32 0x8C379A000000000000000000000000000000000000000000000000000000000 DUP2 MSTORE PUSH1 0x4 ADD PUSH2 0xAA1 SWAP1 PUSH2 0x1116 JUMP JUMPDEST PUSH1 0x40 MLOAD DUP1 SWAP2 SUB SWAP1 REVERT JUMPDEST PUSH0 PUSH2 0xABA DUP3 PUSH1 0x2 SLOAD PUSH1 0x3 SLOAD PUSH2 0x1AD JUMP JUMPDEST SWAP1 POP DUP2 PUSH1 0x2 PUSH0 DUP3 DUP3 SLOAD PUSH2 0xACD SWAP2 SWAP1 PUSH2 0xF87 JUMP JUMPDEST SWAP3 POP POP DUP2 SWAP1 SSTORE POP DUP1 PUSH1 0x3 PUSH0 DUP3 DUP3 SLOAD PUSH2 0xAE5 SWAP2 SWAP1 PUSH2 0x1134 JUMP JUMPDEST SWAP3 POP POP DUP2 SWAP1 SSTORE POP PUSH1 0x1 PUSH0 SWAP1 SLOAD SWAP1 PUSH2 0x100 EXP SWAP1 DIV PUSH20 0xFFFFFFFFFFFFFFFFFFFFFFFFFFFFFFFFFFFFFFFF AND PUSH20 0xFFFFFFFFFFFFFFFFFFFFFFFFFFFFFFFFFFFFFFFF AND PUSH4 0xA9059CBB CALLER DUP4 PUSH1 0x40 MLOAD DUP4 PUSH4 0xFFFFFFFF AND PUSH1 0xE0 SHL DUP2 MSTORE PUSH1 0x4 ADD PUSH2 0xB48 SWAP3 SWAP2 SWAP1 PUSH2 0x1167 JUMP JUMPDEST PUSH1 0x20 PUSH1 0x40 MLOAD DUP1 DUP4 SUB DUP2 PUSH0 DUP8 GAS CALL ISZERO DUP1 ISZERO PUSH2 0xB64 JUMPI RETURNDATASIZE PUSH0 DUP1 RETURNDATACOPY RETURNDATASIZE PUSH0 REVERT JUMPDEST POP POP POP POP PUSH1 0x40 MLOAD RETURNDATASIZE PUSH1 0x1F NOT PUSH1 0x1F DUP3 ADD AND DUP3 ADD DUP1 PUSH1 0x40 MSTORE POP DUP2 ADD SWAP1 PUSH2 0xB88 SWAP2 SWAP1 PUSH2 0x10A1 JUMP JUMPDEST PUSH2 0xBC7 JUMPI PUSH1 0x40 MLOAD PUSH32 0x8C379A000000000000000000000000000000000000000000000000000000000 DUP2 MSTORE PUSH1 0x4 ADD PUSH2 0xBBE SWAP1 PUSH2 0x1116 JUMP JUMPDEST PUSH1 0x40 MLOAD DUP1 SWAP2 SUB SWAP1 REVERT JUMPDEST CALLER PUSH20 0xFFFFFFFFFFFFFFFFFFFFFFFFFFFFFFFFFFFFFFFF AND PUSH32 0x77F92A1B6A1A11DE8CA49515AD4C1FAD45632DD3442167D74B90B304A3C7A758 DUP4 DUP4 PUSH1 0x40 MLOAD PUSH2 0xC0F SWAP3 SWAP2 SWAP1 PUSH2 0x118E JUMP JUMPDEST PUSH1 0x40 MLOAD DUP1 SWAP2 SUB SWAP1 LOG2 POP POP JUMP JUMPDEST PUSH1 0x2 SLOAD DUP2 JUMP JUMPDEST PUSH0 DUP1 SLOAD SWAP1 PUSH2 0x100 EXP SWAP1 DIV PUSH20 0xFFFFFFFFFFFFFFFFFFFFFFFFFFFFFFFFFFFFFFFF AND DUP2 JUMP JUMPDEST PUSH0 DUP1 REVERT JUMPDEST PUSH0 DUP2 SWAP1 POP SWAP2 SWAP1 POP JUMP JUMPDEST PUSH2 0xC5A DUP2 PUSH2 0xC48 JUMP JUMPDEST DUP2 EQ PUSH2 0xC64 JUMPI PUSH0 DUP1 REVERT JUMPDEST POP JUMP JUMPDEST PUSH0 DUP2 CALLDATALOAD SWAP1 POP PUSH2 0xC75 DUP2 PUSH2 0xC51 JUMP JUMPDEST SWAP3 SWAP2 POP POP JUMP JUMPDEST PUSH0 DUP1 PUSH0 PUSH1 0x60 DUP5 DUP7 SUB SLT ISZERO PUSH2 0xC92 JUMPI PUSH2 0xC91 PUSH2 0xC44 JUMP JUMPDEST JUMPDEST PUSH0 PUSH2 0xC9F DUP7 DUP3 DUP8 ADD PUSH2 0xC67 JUMP JUMPDEST SWAP4 POP POP PUSH1 0x20 PUSH2 0xCB0 DUP7 DUP3 DUP8 ADD PUSH2 0xC67 JUMP JUMPDEST SWAP3 POP POP PUSH1 0x40 PUSH2 0xCC1 DUP7 DUP3 DUP8 ADD PUSH2 0xC67 JUMP JUMPDEST SWAP2 POP POP SWAP3 POP SWAP3 POP SWAP3 JUMP JUMPDEST PUSH2 0xCD4 DUP2 PUSH2 0xC48 JUMP JUMPDEST DUP3 MSTORE POP POP JUMP JUMPDEST PUSH0 PUSH1 0x20 DUP3 ADD SWAP1 POP PUSH2 0xCED PUSH0 DUP4 ADD DUP5 PUSH2 0xCCB JUMP JUMPDEST SWAP3 SWAP2 POP POP JUMP JUMPDEST PUSH0 PUSH1 0x20 DUP3 DUP5 SUB SLT ISZERO PUSH2 0xD08 JUMPI PUSH2 0xD07 PUSH2 0xC44 JUMP JUMPDEST JUMPDEST PUSH0 PUSH2 0xD15 DUP5 DUP3 DUP6 ADD PUSH2 0xC67 JUMP JUMPDEST SWAP2 POP POP SWAP3 SWAP2 POP POP JUMP JUMPDEST PUSH0 PUSH20 0xFFFFFFFFFFFFFFFFFFFFFFFFFFFFFFFFFFFFFFFF DUP3 AND SWAP1 POP SWAP2 SWAP1 POP JUMP JUMPDEST PUSH0 DUP2 SWAP1 POP SWAP2 SWAP1 POP JUMP JUMPDEST PUSH0 PUSH2 0xD60 PUSH2 0xD5B PUSH2 0xD56 DUP5 PUSH2 0xD1E JUMP JUMPDEST PUSH2 0xD3D JUMP JUMPDEST PUSH2 0xD1E JUMP JUMPDEST SWAP1 POP SWAP2 SWAP1 POP JUMP JUMPDEST PUSH0 PUSH2 0xD71 DUP3 PUSH2 0xD46 JUMP JUMPDEST SWAP1 POP SWAP2 SWAP1 POP JUMP JUMPDEST PUSH0 PUSH2 0xD82 DUP3 PUSH2 0xD67 JUMP JUMPDEST SWAP1 POP SWAP2 SWAP1 POP JUMP JUMPDEST PUSH2 0xD92 DUP2 PUSH2 0xD78 JUMP JUMPDEST DUP3 MSTORE POP POP JUMP JUMPDEST PUSH0 PUSH1 0x20 DUP3 ADD SWAP1 POP PUSH2 0xDAB PUSH0 DUP4 ADD DUP5 PUSH2 0xD89 JUMP JUMPDEST SWAP3 SWAP2 POP POP JUMP JUMPDEST PUSH0 DUP1 PUSH1 0x40 DUP4 DUP6 SUB SLT ISZERO PUSH2 0xDC7 JUMPI PUSH2 0xDC6 PUSH2 0xC44 JUMP JUMPDEST JUMPDEST PUSH0 PUSH2 0xDD4 DUP6 DUP3 DUP7 ADD PUSH2 0xC67 JUMP JUMPDEST SWAP3 POP POP PUSH1 0x20 PUSH2 0xDE5 DUP6 DUP3 DUP7 ADD PUSH2 0xC67 JUMP JUMPDEST SWAP2 POP POP SWAP3 POP SWAP3 SWAP1 POP JUMP JUMPDEST PUSH0 PUSH2 0xDF9 DUP3 PUSH2 0xD46 JUMP JUMPDEST SWAP1 POP SWAP2 SWAP1 POP JUMP JUMPDEST PUSH0 PUSH2 0xE0A DUP3 PUSH2 0xDEF JUMP JUMPDEST SWAP1 POP SWAP2 SWAP1 POP JUMP JUMPDEST PUSH2 0xE1A DUP2 PUSH2 0xE00 JUMP JUMPDEST DUP3 MSTORE POP POP JUMP JUMPDEST PUSH0 PUSH1 0x20 DUP3 ADD SWAP1 POP PUSH2 0xE33 PUSH0 DUP4 ADD DUP5 PUSH2 0xE11 JUMP JUMPDEST SWAP3 SWAP2 POP POP JUMP JUMPDEST PUSH0 DUP3 DUP3 MSTORE PUSH1 0x20 DUP3 ADD SWAP1 POP SWAP3 SWAP2 POP POP JUMP JUMPDEST PUSH32 0x496E76616C696420696E70757420616D6F756E74000000000000000000000000 PUSH0 DUP3 ADD MSTORE POP JUMP JUMPDEST PUSH0 PUSH2 0xE7D PUSH1 0x14 DUP4 PUSH2 0xE39 JUMP JUMPDEST SWAP2 POP PUSH2 0xE88 DUP3 PUSH2 0xE49 JUMP JUMPDEST PUSH1 0x20 DUP3 ADD SWAP1 POP SWAP2 SWAP1 POP JUMP JUMPDEST PUSH0 PUSH1 0x20 DUP3 ADD SWAP1 POP DUP2 DUP2 SUB PUSH0 DUP4 ADD MSTORE PUSH2 0xEAA DUP2 PUSH2 0xE71 JUMP JUMPDEST SWAP1 POP SWAP2 SWAP1 POP JUMP JUMPDEST PUSH32 0x496E73756666696369656E74206C697175696469747900000000000000000000 PUSH0 DUP3 ADD MSTORE POP JUMP JUMPDEST PUSH0 PUSH2 0xEE5 PUSH1 0x16 DUP4 PUSH2 0xE39 JUMP JUMPDEST SWAP2 POP PUSH2 0xEF0 DUP3 PUSH2 0xEB1 JUMP JUMPDEST PUSH1 0x20 DUP3 ADD SWAP1 POP SWAP2 SWAP1 POP JUMP JUMPDEST PUSH0 PUSH1 0x20 DUP3 ADD SWAP1 POP DUP2 DUP2 SUB PUSH0 DUP4 ADD MSTORE PUSH2 0xF12 DUP2 PUSH2 0xED9 JUMP JUMPDEST SWAP1 POP SWAP2 SWAP1 POP JUMP JUMPDEST PUSH32 0x4E487B7100000000000000000000000000000000000000000000000000000000 PUSH0 MSTORE PUSH1 0x11 PUSH1 0x4 MSTORE PUSH1 0x24 PUSH0 REVERT JUMPDEST PUSH0 PUSH2 0xF50 DUP3 PUSH2 0xC48 JUMP JUMPDEST SWAP2 POP PUSH2 0xF5B DUP4 PUSH2 0xC48 JUMP JUMPDEST SWAP3 POP DUP3 DUP3 MUL PUSH2 0xF69 DUP2 PUSH2 0xC48 JUMP JUMPDEST SWAP2 POP DUP3 DUP3 DIV DUP5 EQ DUP4 ISZERO OR PUSH2 0xF80 JUMPI PUSH2 0xF7F PUSH2 0xF19 JUMP JUMPDEST JUMPDEST POP SWAP3 SWAP2 POP POP JUMP JUMPDEST PUSH0 PUSH2 0xF91 DUP3 PUSH2 0xC48 JUMP JUMPDEST SWAP2 POP PUSH2 0xF9C DUP4 PUSH2 0xC48 JUMP JUMPDEST SWAP3 POP DUP3 DUP3 ADD SWAP1 POP DUP1 DUP3 GT ISZERO PUSH2 0xFB4 JUMPI PUSH2 0xFB3 PUSH2 0xF19 JUMP JUMPDEST JUMPDEST SWAP3 SWAP2 POP POP JUMP JUMPDEST PUSH32 0x4E487B7100000000000000000000000000000000000000000000000000000000 PUSH0 MSTORE PUSH1 0x12 PUSH1 0x4 MSTORE PUSH1 0x24 PUSH0 REVERT JUMPDEST PUSH0 PUSH2 0xFF1 DUP3 PUSH2 0xC48 JUMP JUMPDEST SWAP2 POP PUSH2 0xFFC DUP4 PUSH2 0xC48 JUMP JUMPDEST SWAP3 POP DUP3 PUSH2 0x100C JUMPI PUSH2 0x100B PUSH2 0xFBA JUMP JUMPDEST JUMPDEST DUP3 DUP3 DIV SWAP1 POP SWAP3 SWAP2 POP POP JUMP JUMPDEST PUSH0 PUSH2 0x1021 DUP3 PUSH2 0xD1E JUMP JUMPDEST SWAP1 POP SWAP2 SWAP1 POP JUMP JUMPDEST PUSH2 0x1031 DUP2 PUSH2 0x1017 JUMP JUMPDEST DUP3 MSTORE POP POP JUMP JUMPDEST PUSH0 PUSH1 0x60 DUP3 ADD SWAP1 POP PUSH2 0x104A PUSH0 DUP4 ADD DUP7 PUSH2 0x1028 JUMP JUMPDEST PUSH2 0x1057 PUSH1 0x20 DUP4 ADD DUP6 PUSH2 0x1028 JUMP JUMPDEST PUSH2 0x1064 PUSH1 0x40 DUP4 ADD DUP5 PUSH2 0xCCB JUMP JUMPDEST SWAP5 SWAP4 POP POP POP POP JUMP JUMPDEST PUSH0 DUP2 ISZERO ISZERO SWAP1 POP SWAP2 SWAP1 POP JUMP JUMPDEST PUSH2 0x1080 DUP2 PUSH2 0x106C JUMP JUMPDEST DUP2 EQ PUSH2 0x108A JUMPI PUSH0 DUP1 REVERT JUMPDEST POP JUMP JUMPDEST PUSH0 DUP2 MLOAD SWAP1 POP PUSH2 0x109B DUP2 PUSH2 0x1077 JUMP JUMPDEST SWAP3 SWAP2 POP POP JUMP JUMPDEST PUSH0 PUSH1 0x20 DUP3 DUP5 SUB SLT ISZERO PUSH2 0x10B6 JUMPI PUSH2 0x10B5 PUSH2 0xC44 JUMP JUMPDEST JUMPDEST PUSH0 PUSH2 0x10C3 DUP5 DUP3 DUP6 ADD PUSH2 0x108D JUMP JUMPDEST SWAP2 POP POP SWAP3 SWAP2 POP POP JUMP JUMPDEST PUSH32 0x5472616E73666572206661696C65640000000000000000000000000000000000 PUSH0 DUP3 ADD MSTORE POP JUMP JUMPDEST PUSH0 PUSH2 0x1100 PUSH1 0xF DUP4 PUSH2 0xE39 JUMP JUMPDEST SWAP2 POP PUSH2 0x110B DUP3 PUSH2 0x10CC JUMP JUMPDEST PUSH1 0x20 DUP3 ADD SWAP1 POP SWAP2 SWAP1 POP JUMP JUMPDEST PUSH0 PUSH1 0x20 DUP3 ADD SWAP1 POP DUP2 DUP2 SUB PUSH0 DUP4 ADD MSTORE PUSH2 0x112D DUP2 PUSH2 0x10F4 JUMP JUMPDEST SWAP1 POP SWAP2 SWAP1 POP JUMP JUMPDEST PUSH0 PUSH2 0x113E DUP3 PUSH2 0xC48 JUMP JUMPDEST SWAP2 POP PUSH2 0x1149 DUP4 PUSH2 0xC48 JUMP JUMPDEST SWAP3 POP DUP3 DUP3 SUB SWAP1 POP DUP2 DUP2 GT ISZERO PUSH2 0x1161 JUMPI PUSH2 0x1160 PUSH2 0xF19 JUMP JUMPDEST JUMPDEST SWAP3 SWAP2 POP POP JUMP JUMPDEST PUSH0 PUSH1 0x40 DUP3 ADD SWAP1 POP PUSH2 0x117A PUSH0 DUP4 ADD DUP6 PUSH2 0x1028 JUMP JUMPDEST PUSH2 0x1187 PUSH1 0x20 DUP4 ADD DUP5 PUSH2 0xCCB JUMP JUMPDEST SWAP4 SWAP3 POP POP POP JUMP JUMPDEST PUSH0 PUSH1 0x40 DUP3 ADD SWAP1 POP PUSH2 0x11A1 PUSH0 DUP4 ADD DUP6 PUSH2 0xCCB JUMP JUMPDEST PUSH2 0x11AE PUSH1 0x20 DUP4 ADD DUP5 PUSH2 0xCCB JUMP JUMPDEST SWAP4 SWAP3 POP POP POP JUMP JUMPDEST PUSH32 0x496E73756666696369656E742072657365727665730000000000000000000000 PUSH0 DUP3 ADD MSTORE POP JUMP JUMPDEST PUSH0 PUSH2 0x11E9 PUSH1 0x15 DUP4 PUSH2 0xE39 JUMP JUMPDEST SWAP2 POP PUSH2 0x11F4 DUP3 PUSH2 0x11B5 JUMP JUMPDEST PUSH1 0x20 DUP3 ADD SWAP1 POP SWAP2 SWAP1 POP JUMP JUMPDEST PUSH0 PUSH1 0x20 DUP3 ADD SWAP1 POP DUP2 DUP2 SUB PUSH0 DUP4 ADD MSTORE PUSH2 0x1216 DUP2 PUSH2 0x11DD JUMP JUMPDEST SWAP1 POP SWAP2 SWAP1 POP JUMP INVALID LOG2 PUSH5 0x6970667358 0x22 SLT KECCAK256 CHAINID INVALID JUMPI ISZERO 0xD5 ADDMOD 0xE0 0xF 0xC5 SWAP4 DUP4 SGT DUP1 PUSH27 0x99AA5E8AD27B1AF3AFD729D867F5E6B47EA764736F6C634300081A STOP CALLER "
				},
				"gasEstimates": {
					"creation": {
						"codeDepositCost": "938200",
						"executionCost": "infinite",
						"totalCost": "infinite"
					},
					"external": {
						"addLiquidity(uint256,uint256)": "infinite",
						"getAmountOut(uint256,uint256,uint256)": "infinite",
						"removeLiquidity(uint256,uint256)": "infinite",
						"reserveToken()": "2491",
						"reserveWETH()": "2470",
						"swapTokenForWETH(uint256)": "infinite",
						"swapWETHForToken(uint256)": "infinite",
						"token()": "infinite",
						"weth()": "infinite"
					}
				},
				"methodIdentifiers": {
					"addLiquidity(uint256,uint256)": "9cd441da",
					"getAmountOut(uint256,uint256,uint256)": "054d50d4",
					"removeLiquidity(uint256,uint256)": "9d7de6b3",
					"reserveToken()": "f4325d67",
					"reserveWETH()": "1b9a1754",
					"swapTokenForWETH(uint256)": "caffdf44",
					"swapWETHForToken(uint256)": "15d3eadd",
					"token()": "fc0c546a",
					"weth()": "3fc8cef3"
				}
			},
			"storageLayout": {
				"storage": [
					{
						"astId": 319,
						"contract": "contracts/wethamm.sol:SimpleAMM",
						"label": "token",
						"offset": 0,
						"slot": "0",
						"type": "t_contract(IERC20)68"
					},
					{
						"astId": 322,
						"contract": "contracts/wethamm.sol:SimpleAMM",
						"label": "weth",
						"offset": 0,
						"slot": "1",
						"type": "t_contract(WETH)316"
					},
					{
						"astId": 324,
						"contract": "contracts/wethamm.sol:SimpleAMM",
						"label": "reserveToken",
						"offset": 0,
						"slot": "2",
						"type": "t_uint256"
					},
					{
						"astId": 326,
						"contract": "contracts/wethamm.sol:SimpleAMM",
						"label": "reserveWETH",
						"offset": 0,
						"slot": "3",
						"type": "t_uint256"
					}
				],
				"types": {
					"t_contract(IERC20)68": {
						"encoding": "inplace",
						"label": "contract IERC20",
						"numberOfBytes": "20"
					},
					"t_contract(WETH)316": {
						"encoding": "inplace",
						"label": "contract WETH",
						"numberOfBytes": "20"
					},
					"t_uint256": {
						"encoding": "inplace",
						"label": "uint256",
						"numberOfBytes": "32"
					}
				}
			},
			"userdoc": {
				"kind": "user",
				"methods": {},
				"version": 1
			}
		}
	}
}